{
  "_format": "hh-sol-artifact-1",
  "contractName": "NFT",
  "sourceName": "contracts/nftTest.sol",
  "abi": [
    {
      "inputs": [
        {
          "internalType": "string",
          "name": "_name",
          "type": "string"
        },
        {
          "internalType": "string",
          "name": "_symbol",
          "type": "string"
        },
        {
          "internalType": "uint256",
          "name": "_limit",
          "type": "uint256"
        },
        {
          "internalType": "uint256",
          "name": "_price",
          "type": "uint256"
        },
        {
          "internalType": "uint256",
          "name": "_interval",
          "type": "uint256"
        },
        {
          "internalType": "uint256",
          "name": "_revelingBlock",
          "type": "uint256"
        },
        {
          "internalType": "string",
          "name": "_notReveledNFTURI",
          "type": "string"
        }
      ],
      "stateMutability": "nonpayable",
      "type": "constructor"
    },
    {
      "inputs": [],
      "name": "FailedToWithdraw",
      "type": "error"
    },
    {
      "inputs": [
        {
          "internalType": "uint256",
          "name": "paidPrice",
          "type": "uint256"
        },
        {
          "internalType": "uint256",
          "name": "price",
          "type": "uint256"
        }
      ],
      "name": "InsufficientValue",
      "type": "error"
    },
    {
      "inputs": [],
      "name": "OutOfNfts",
      "type": "error"
    },
    {
      "inputs": [
        {
          "internalType": "uint256",
          "name": "tillBlock",
          "type": "uint256"
        },
        {
          "internalType": "uint256",
          "name": "currentBlock",
          "type": "uint256"
        }
      ],
      "name": "WaitForACoupleOfBlocks",
      "type": "error"
    },
    {
      "anonymous": false,
      "inputs": [
        {
          "indexed": true,
          "internalType": "address",
          "name": "owner",
          "type": "address"
        },
        {
          "indexed": true,
          "internalType": "address",
          "name": "approved",
          "type": "address"
        },
        {
          "indexed": true,
          "internalType": "uint256",
          "name": "tokenId",
          "type": "uint256"
        }
      ],
      "name": "Approval",
      "type": "event"
    },
    {
      "anonymous": false,
      "inputs": [
        {
          "indexed": true,
          "internalType": "address",
          "name": "owner",
          "type": "address"
        },
        {
          "indexed": true,
          "internalType": "address",
          "name": "operator",
          "type": "address"
        },
        {
          "indexed": false,
          "internalType": "bool",
          "name": "approved",
          "type": "bool"
        }
      ],
      "name": "ApprovalForAll",
      "type": "event"
    },
    {
      "anonymous": false,
      "inputs": [
        {
          "indexed": true,
          "internalType": "address",
          "name": "previousOwner",
          "type": "address"
        },
        {
          "indexed": true,
          "internalType": "address",
          "name": "newOwner",
          "type": "address"
        }
      ],
      "name": "OwnershipTransferred",
      "type": "event"
    },
    {
      "anonymous": false,
      "inputs": [
        {
          "indexed": true,
          "internalType": "address",
          "name": "from",
          "type": "address"
        },
        {
          "indexed": true,
          "internalType": "address",
          "name": "to",
          "type": "address"
        },
        {
          "indexed": true,
          "internalType": "uint256",
          "name": "tokenId",
          "type": "uint256"
        }
      ],
      "name": "Transfer",
      "type": "event"
    },
    {
      "inputs": [
        {
          "internalType": "uint256",
          "name": "",
          "type": "uint256"
        }
      ],
      "name": "BlockDesc",
      "outputs": [
        {
          "internalType": "string",
          "name": "",
          "type": "string"
        }
      ],
      "stateMutability": "view",
      "type": "function"
    },
    {
      "inputs": [
        {
          "internalType": "uint256",
          "name": "",
          "type": "uint256"
        }
      ],
      "name": "BlockNumber",
      "outputs": [
        {
          "internalType": "uint256",
          "name": "",
          "type": "uint256"
        }
      ],
      "stateMutability": "view",
      "type": "function"
    },
    {
      "inputs": [
        {
          "internalType": "address",
          "name": "",
          "type": "address"
        }
      ],
      "name": "NumberTracker",
      "outputs": [
        {
          "internalType": "uint256",
          "name": "",
          "type": "uint256"
        }
      ],
      "stateMutability": "view",
      "type": "function"
    },
    {
      "inputs": [
        {
          "internalType": "address",
          "name": "to",
          "type": "address"
        },
        {
          "internalType": "uint256",
          "name": "tokenId",
          "type": "uint256"
        }
      ],
      "name": "approve",
      "outputs": [],
      "stateMutability": "nonpayable",
      "type": "function"
    },
    {
      "inputs": [
        {
          "internalType": "address",
          "name": "owner",
          "type": "address"
        }
      ],
      "name": "balanceOf",
      "outputs": [
        {
          "internalType": "uint256",
          "name": "",
          "type": "uint256"
        }
      ],
      "stateMutability": "view",
      "type": "function"
    },
    {
      "inputs": [
        {
          "internalType": "uint256",
          "name": "tokenId",
          "type": "uint256"
        }
      ],
      "name": "getApproved",
      "outputs": [
        {
          "internalType": "address",
          "name": "",
          "type": "address"
        }
      ],
      "stateMutability": "view",
      "type": "function"
    },
    {
      "inputs": [
        {
          "internalType": "uint256",
          "name": "tokenId",
          "type": "uint256"
        }
      ],
      "name": "getBlockDesc",
      "outputs": [
        {
          "internalType": "string",
          "name": "",
          "type": "string"
        }
      ],
      "stateMutability": "view",
      "type": "function"
    },
    {
      "inputs": [
        {
          "internalType": "uint256",
          "name": "tokenId",
          "type": "uint256"
        }
      ],
      "name": "getIsBlock",
      "outputs": [
        {
          "internalType": "uint256",
          "name": "",
          "type": "uint256"
        }
      ],
      "stateMutability": "view",
      "type": "function"
    },
    {
      "inputs": [],
      "name": "interval",
      "outputs": [
        {
          "internalType": "uint256",
          "name": "",
          "type": "uint256"
        }
      ],
      "stateMutability": "view",
      "type": "function"
    },
    {
      "inputs": [
        {
          "internalType": "address",
          "name": "owner",
          "type": "address"
        },
        {
          "internalType": "address",
          "name": "operator",
          "type": "address"
        }
      ],
      "name": "isApprovedForAll",
      "outputs": [
        {
          "internalType": "bool",
          "name": "",
          "type": "bool"
        }
      ],
      "stateMutability": "view",
      "type": "function"
    },
    {
      "inputs": [
        {
          "internalType": "uint256",
          "name": "",
          "type": "uint256"
        }
      ],
      "name": "isBlock",
      "outputs": [
        {
          "internalType": "uint256",
          "name": "",
          "type": "uint256"
        }
      ],
      "stateMutability": "view",
      "type": "function"
    },
    {
      "inputs": [],
      "name": "latestId",
      "outputs": [
        {
          "internalType": "uint256",
          "name": "",
          "type": "uint256"
        }
      ],
      "stateMutability": "view",
      "type": "function"
    },
    {
      "inputs": [],
      "name": "limit",
      "outputs": [
        {
          "internalType": "uint256",
          "name": "",
          "type": "uint256"
        }
      ],
      "stateMutability": "view",
      "type": "function"
    },
    {
      "inputs": [],
      "name": "mint",
      "outputs": [],
      "stateMutability": "payable",
      "type": "function"
    },
    {
      "inputs": [],
      "name": "name",
      "outputs": [
        {
          "internalType": "string",
          "name": "",
          "type": "string"
        }
      ],
      "stateMutability": "view",
      "type": "function"
    },
    {
      "inputs": [],
      "name": "notReveledNFTURI",
      "outputs": [
        {
          "internalType": "string",
          "name": "",
          "type": "string"
        }
      ],
      "stateMutability": "view",
      "type": "function"
    },
    {
      "inputs": [],
      "name": "owner",
      "outputs": [
        {
          "internalType": "address",
          "name": "",
          "type": "address"
        }
      ],
      "stateMutability": "view",
      "type": "function"
    },
    {
      "inputs": [
        {
          "internalType": "uint256",
          "name": "tokenId",
          "type": "uint256"
        }
      ],
      "name": "ownerOf",
      "outputs": [
        {
          "internalType": "address",
          "name": "",
          "type": "address"
        }
      ],
      "stateMutability": "view",
      "type": "function"
    },
    {
      "inputs": [],
      "name": "price",
      "outputs": [
        {
          "internalType": "uint256",
          "name": "",
          "type": "uint256"
        }
      ],
      "stateMutability": "view",
      "type": "function"
    },
    {
      "inputs": [],
      "name": "renounceOwnership",
      "outputs": [],
      "stateMutability": "nonpayable",
      "type": "function"
    },
    {
      "inputs": [],
      "name": "revelingBlock",
      "outputs": [
        {
          "internalType": "uint256",
          "name": "",
          "type": "uint256"
        }
      ],
      "stateMutability": "view",
      "type": "function"
    },
    {
      "inputs": [
        {
          "internalType": "address",
          "name": "from",
          "type": "address"
        },
        {
          "internalType": "address",
          "name": "to",
          "type": "address"
        },
        {
          "internalType": "uint256",
          "name": "tokenId",
          "type": "uint256"
        }
      ],
      "name": "safeTransferFrom",
      "outputs": [],
      "stateMutability": "nonpayable",
      "type": "function"
    },
    {
      "inputs": [
        {
          "internalType": "address",
          "name": "from",
          "type": "address"
        },
        {
          "internalType": "address",
          "name": "to",
          "type": "address"
        },
        {
          "internalType": "uint256",
          "name": "tokenId",
          "type": "uint256"
        },
        {
          "internalType": "bytes",
          "name": "data",
          "type": "bytes"
        }
      ],
      "name": "safeTransferFrom",
      "outputs": [],
      "stateMutability": "nonpayable",
      "type": "function"
    },
    {
      "inputs": [
        {
          "internalType": "address",
          "name": "operator",
          "type": "address"
        },
        {
          "internalType": "bool",
          "name": "approved",
          "type": "bool"
        }
      ],
      "name": "setApprovalForAll",
      "outputs": [],
      "stateMutability": "nonpayable",
      "type": "function"
    },
    {
      "inputs": [
        {
          "internalType": "uint256",
          "name": "tokenId",
          "type": "uint256"
        },
        {
          "internalType": "string",
          "name": "desc",
          "type": "string"
        }
      ],
      "name": "setBlockDesc",
      "outputs": [],
      "stateMutability": "nonpayable",
      "type": "function"
    },
    {
      "inputs": [
        {
          "internalType": "uint256",
          "name": "tokenId",
          "type": "uint256"
        }
      ],
      "name": "setIsBlock",
      "outputs": [],
      "stateMutability": "nonpayable",
      "type": "function"
    },
    {
      "inputs": [
        {
          "internalType": "uint256",
          "name": "tokenId",
          "type": "uint256"
        }
      ],
      "name": "setIsBlockBeZero",
      "outputs": [],
      "stateMutability": "nonpayable",
      "type": "function"
    },
    {
      "inputs": [
        {
          "internalType": "bytes4",
          "name": "interfaceId",
          "type": "bytes4"
        }
      ],
      "name": "supportsInterface",
      "outputs": [
        {
          "internalType": "bool",
          "name": "",
          "type": "bool"
        }
      ],
      "stateMutability": "view",
      "type": "function"
    },
    {
      "inputs": [],
      "name": "symbol",
      "outputs": [
        {
          "internalType": "string",
          "name": "",
          "type": "string"
        }
      ],
      "stateMutability": "view",
      "type": "function"
    },
    {
      "inputs": [
        {
          "internalType": "uint256",
          "name": "index",
          "type": "uint256"
        }
      ],
      "name": "tokenByIndex",
      "outputs": [
        {
          "internalType": "uint256",
          "name": "",
          "type": "uint256"
        }
      ],
      "stateMutability": "view",
      "type": "function"
    },
    {
      "inputs": [
        {
          "internalType": "address",
          "name": "owner",
          "type": "address"
        },
        {
          "internalType": "uint256",
          "name": "index",
          "type": "uint256"
        }
      ],
      "name": "tokenOfOwnerByIndex",
      "outputs": [
        {
          "internalType": "uint256",
          "name": "",
          "type": "uint256"
        }
      ],
      "stateMutability": "view",
      "type": "function"
    },
    {
      "inputs": [
        {
          "internalType": "uint256",
          "name": "tokenId",
          "type": "uint256"
        }
      ],
      "name": "tokenURI",
      "outputs": [
        {
          "internalType": "string",
          "name": "",
          "type": "string"
        }
      ],
      "stateMutability": "view",
      "type": "function"
    },
    {
      "inputs": [],
      "name": "totalSupply",
      "outputs": [
        {
          "internalType": "uint256",
          "name": "",
          "type": "uint256"
        }
      ],
      "stateMutability": "view",
      "type": "function"
    },
    {
      "inputs": [
        {
          "internalType": "address",
          "name": "from",
          "type": "address"
        },
        {
          "internalType": "address",
          "name": "to",
          "type": "address"
        },
        {
          "internalType": "uint256",
          "name": "tokenId",
          "type": "uint256"
        }
      ],
      "name": "transferFrom",
      "outputs": [],
      "stateMutability": "nonpayable",
      "type": "function"
    },
    {
      "inputs": [
        {
          "internalType": "address",
          "name": "newOwner",
          "type": "address"
        }
      ],
      "name": "transferOwnership",
      "outputs": [],
      "stateMutability": "nonpayable",
      "type": "function"
    },
    {
      "inputs": [
        {
          "internalType": "address",
          "name": "_to",
          "type": "address"
        },
        {
          "internalType": "uint256",
          "name": "_number",
          "type": "uint256"
        }
      ],
      "name": "u_airdrop",
      "outputs": [],
      "stateMutability": "nonpayable",
      "type": "function"
    },
    {
      "inputs": [
        {
          "internalType": "address[]",
          "name": "_to",
          "type": "address[]"
        }
      ],
      "name": "u_airdrop2",
      "outputs": [],
      "stateMutability": "nonpayable",
      "type": "function"
    },
    {
      "inputs": [],
      "name": "u_currentBalance",
      "outputs": [
        {
          "internalType": "uint256",
          "name": "",
          "type": "uint256"
        }
      ],
      "stateMutability": "view",
      "type": "function"
    },
    {
      "inputs": [
        {
          "internalType": "address",
          "name": "_to",
          "type": "address"
        },
        {
          "internalType": "uint256",
          "name": "_number",
          "type": "uint256"
        }
      ],
      "name": "u_mint",
      "outputs": [],
      "stateMutability": "nonpayable",
      "type": "function"
    },
    {
      "inputs": [
        {
          "internalType": "uint256",
          "name": "_interval",
          "type": "uint256"
        }
      ],
      "name": "u_setInterval",
      "outputs": [],
      "stateMutability": "nonpayable",
      "type": "function"
    },
    {
      "inputs": [
        {
          "internalType": "uint256",
          "name": "_price",
          "type": "uint256"
        }
      ],
      "name": "u_setPrice",
      "outputs": [],
      "stateMutability": "nonpayable",
      "type": "function"
    },
    {
      "inputs": [
        {
          "internalType": "uint256",
          "name": "_revelingBlock",
          "type": "uint256"
        }
      ],
      "name": "u_setRevelingBlock",
      "outputs": [],
      "stateMutability": "nonpayable",
      "type": "function"
    },
    {
      "inputs": [],
      "name": "u_whenToRevelNFTs",
      "outputs": [
        {
          "internalType": "uint256",
          "name": "",
          "type": "uint256"
        }
      ],
      "stateMutability": "view",
      "type": "function"
    },
    {
      "inputs": [],
      "name": "u_withdraw",
      "outputs": [],
      "stateMutability": "nonpayable",
      "type": "function"
    },
    {
      "stateMutability": "payable",
      "type": "receive"
    }
  ],
  "bytecode": "0x60806040523480156200001157600080fd5b5060405162004cfd38038062004cfd833981810160405281019062000037919062000432565b8686816000908051906020019062000051929190620001aa565b5080600190805190602001906200006a929190620001aa565b5050506200008d62000081620000dc60201b60201c565b620000e460201b60201c565b84600b8190555083600d8190555082600e819055504382620000b0919062000571565b600f819055508060109080519060200190620000ce929190620001aa565b505050505050505062000633565b600033905090565b6000600a60009054906101000a900473ffffffffffffffffffffffffffffffffffffffff16905081600a60006101000a81548173ffffffffffffffffffffffffffffffffffffffff021916908373ffffffffffffffffffffffffffffffffffffffff1602179055508173ffffffffffffffffffffffffffffffffffffffff168173ffffffffffffffffffffffffffffffffffffffff167f8be0079c531659141344cd1fd0a4f28419497f9722a3daafe3b4186f6b6457e060405160405180910390a35050565b828054620001b890620005fd565b90600052602060002090601f016020900481019282620001dc576000855562000228565b82601f10620001f757805160ff191683800117855562000228565b8280016001018555821562000228579182015b82811115620002275782518255916020019190600101906200020a565b5b5090506200023791906200023b565b5090565b5b80821115620002565760008160009055506001016200023c565b5090565b6000604051905090565b600080fd5b600080fd5b600080fd5b600080fd5b6000601f19601f8301169050919050565b7f4e487b7100000000000000000000000000000000000000000000000000000000600052604160045260246000fd5b620002c38262000278565b810181811067ffffffffffffffff82111715620002e557620002e462000289565b5b80604052505050565b6000620002fa6200025a565b9050620003088282620002b8565b919050565b600067ffffffffffffffff8211156200032b576200032a62000289565b5b620003368262000278565b9050602081019050919050565b60005b838110156200036357808201518184015260208101905062000346565b8381111562000373576000848401525b50505050565b6000620003906200038a846200030d565b620002ee565b905082815260208101848484011115620003af57620003ae62000273565b5b620003bc84828562000343565b509392505050565b600082601f830112620003dc57620003db6200026e565b5b8151620003ee84826020860162000379565b91505092915050565b6000819050919050565b6200040c81620003f7565b81146200041857600080fd5b50565b6000815190506200042c8162000401565b92915050565b600080600080600080600060e0888a03121562000454576200045362000264565b5b600088015167ffffffffffffffff81111562000475576200047462000269565b5b620004838a828b01620003c4565b975050602088015167ffffffffffffffff811115620004a757620004a662000269565b5b620004b58a828b01620003c4565b9650506040620004c88a828b016200041b565b9550506060620004db8a828b016200041b565b9450506080620004ee8a828b016200041b565b93505060a0620005018a828b016200041b565b92505060c088015167ffffffffffffffff81111562000525576200052462000269565b5b620005338a828b01620003c4565b91505092959891949750929550565b7f4e487b7100000000000000000000000000000000000000000000000000000000600052601160045260246000fd5b60006200057e82620003f7565b91506200058b83620003f7565b9250827fffffffffffffffffffffffffffffffffffffffffffffffffffffffffffffffff03821115620005c357620005c262000542565b5b828201905092915050565b7f4e487b7100000000000000000000000000000000000000000000000000000000600052602260045260246000fd5b600060028204905060018216806200061657607f821691505b602082108114156200062d576200062c620005ce565b5b50919050565b6146ba80620006436000396000f3fe60806040526004361061026b5760003560e01c806395d89b4111610144578063c1efcf18116100b6578063e028dc9f1161007a578063e028dc9f1461095a578063e985e9c514610983578063ea09a26c146109c0578063f2fde38b146109fd578063f71e35ca14610a26578063f7ef0fa814610a4f5761027a565b8063c1efcf181461084f578063c28a15891461087a578063c6709011146108b7578063c79ac796146108f4578063c87b56dd1461091d5761027a565b8063a22cb46511610108578063a22cb4651461072f578063a458197014610758578063a4d66daf14610795578063b356fc1a146107c0578063b88d4fde146107e9578063c04eeb4c146108125761027a565b806395d89b411461065a5780639e024b7a14610685578063a035b1fe146106ae578063a0699502146106d9578063a21301a5146107045761027a565b806342842e0e116101dd5780636af047a4116101a15780636af047a41461057057806370a0823114610587578063715018a6146105c45780638bff07d8146105db5780638da5cb5b14610604578063947a36fb1461062f5761027a565b806342842e0e146104795780634bfbbe0b146104a25780634f6ccce7146104cd5780636352211e1461050a57806368752f9a146105475761027a565b80631249c58b1161022f5780631249c58b1461037657806318160ddd146103805780631d5ae7c8146103ab57806323b872dd146103d657806324409c30146103ff5780632f745c591461043c5761027a565b806301ffc9a71461027f57806306fdde03146102bc578063081812fc146102e7578063095ea7b31461032457806310f362eb1461034d5761027a565b3661027a57610278610a78565b005b600080fd5b34801561028b57600080fd5b506102a660048036038101906102a1919061326a565b610c96565b6040516102b391906132b2565b60405180910390f35b3480156102c857600080fd5b506102d1610d10565b6040516102de9190613366565b60405180910390f35b3480156102f357600080fd5b5061030e600480360381019061030991906133be565b610da2565b60405161031b919061342c565b60405180910390f35b34801561033057600080fd5b5061034b60048036038101906103469190613473565b610de8565b005b34801561035957600080fd5b50610374600480360381019061036f91906133be565b610f00565b005b61037e610a78565b005b34801561038c57600080fd5b50610395610f1d565b6040516103a291906134c2565b60405180910390f35b3480156103b757600080fd5b506103c0610f2a565b6040516103cd9190613366565b60405180910390f35b3480156103e257600080fd5b506103fd60048036038101906103f891906134dd565b610fb8565b005b34801561040b57600080fd5b5061042660048036038101906104219190613530565b611018565b60405161043391906134c2565b60405180910390f35b34801561044857600080fd5b50610463600480360381019061045e9190613473565b611030565b60405161047091906134c2565b60405180910390f35b34801561048557600080fd5b506104a0600480360381019061049b91906134dd565b6110d5565b005b3480156104ae57600080fd5b506104b76110f5565b6040516104c491906134c2565b60405180910390f35b3480156104d957600080fd5b506104f460048036038101906104ef91906133be565b6110fb565b60405161050191906134c2565b60405180910390f35b34801561051657600080fd5b50610531600480360381019061052c91906133be565b61116c565b60405161053e919061342c565b60405180910390f35b34801561055357600080fd5b5061056e600480360381019061056991906133be565b6111f3565b005b34801561057c57600080fd5b50610585611285565b005b34801561059357600080fd5b506105ae60048036038101906105a99190613530565b611333565b6040516105bb91906134c2565b60405180910390f35b3480156105d057600080fd5b506105d96113eb565b005b3480156105e757600080fd5b5061060260048036038101906105fd9190613692565b6113ff565b005b34801561061057600080fd5b506106196114a1565b604051610626919061342c565b60405180910390f35b34801561063b57600080fd5b506106446114cb565b60405161065191906134c2565b60405180910390f35b34801561066657600080fd5b5061066f6114d1565b60405161067c9190613366565b60405180910390f35b34801561069157600080fd5b506106ac60048036038101906106a791906133be565b611563565b005b3480156106ba57600080fd5b506106c3611575565b6040516106d091906134c2565b60405180910390f35b3480156106e557600080fd5b506106ee61157b565b6040516106fb91906134c2565b60405180910390f35b34801561071057600080fd5b50610719611581565b60405161072691906134c2565b60405180910390f35b34801561073b57600080fd5b506107566004803603810190610751919061371a565b611589565b005b34801561076457600080fd5b5061077f600480360381019061077a91906133be565b61159f565b60405161078c91906134c2565b60405180910390f35b3480156107a157600080fd5b506107aa6115bc565b6040516107b791906134c2565b60405180910390f35b3480156107cc57600080fd5b506107e760048036038101906107e29190613473565b6115c2565b005b3480156107f557600080fd5b50610810600480360381019061080b91906137fb565b611656565b005b34801561081e57600080fd5b50610839600480360381019061083491906133be565b6116b8565b60405161084691906134c2565b60405180910390f35b34801561085b57600080fd5b506108646116d0565b60405161087191906134c2565b60405180910390f35b34801561088657600080fd5b506108a1600480360381019061089c91906133be565b6116f7565b6040516108ae91906134c2565b60405180910390f35b3480156108c357600080fd5b506108de60048036038101906108d991906133be565b61171b565b6040516108eb9190613366565b60405180910390f35b34801561090057600080fd5b5061091b60048036038101906109169190613473565b6117bb565b005b34801561092957600080fd5b50610944600480360381019061093f91906133be565b61184f565b6040516109519190613366565b60405180910390f35b34801561096657600080fd5b50610981600480360381019061097c91906138de565b61194a565b005b34801561098f57600080fd5b506109aa60048036038101906109a5919061392b565b611a0e565b6040516109b791906132b2565b60405180910390f35b3480156109cc57600080fd5b506109e760048036038101906109e291906133be565b611aa2565b6040516109f49190613366565b60405180910390f35b348015610a0957600080fd5b50610a246004803603810190610a1f9190613530565b611b5a565b005b348015610a3257600080fd5b50610a4d6004803603810190610a4891906133be565b611bde565b005b348015610a5b57600080fd5b50610a766004803603810190610a7191906133be565b611c70565b005b6000601260003373ffffffffffffffffffffffffffffffffffffffff1673ffffffffffffffffffffffffffffffffffffffff1681526020019081526020016000205414610b145743600e54601260003373ffffffffffffffffffffffffffffffffffffffff1673ffffffffffffffffffffffffffffffffffffffff16815260200190815260200160002054610b0d919061399a565b1015610b17565b60005b15610ba757600e54601260003373ffffffffffffffffffffffffffffffffffffffff1673ffffffffffffffffffffffffffffffffffffffff16815260200190815260200160002054610b69919061399a565b436040517f5577bb1f000000000000000000000000000000000000000000000000000000008152600401610b9e9291906139f0565b60405180910390fd5b34600d5414610bf15734600d546040517f7040b58c000000000000000000000000000000000000000000000000000000008152600401610be89291906139f0565b60405180910390fd5b600b54600c5410610c2e576040517f25d79e5f00000000000000000000000000000000000000000000000000000000815260040160405180910390fd5b600c60008154610c3d90613a19565b91905081905550610c5033600c54611c82565b43601260003373ffffffffffffffffffffffffffffffffffffffff1673ffffffffffffffffffffffffffffffffffffffff16815260200190815260200160002081905550565b60007f780e9d63000000000000000000000000000000000000000000000000000000007bffffffffffffffffffffffffffffffffffffffffffffffffffffffff1916827bffffffffffffffffffffffffffffffffffffffffffffffffffffffff19161480610d095750610d0882611ca0565b5b9050919050565b606060008054610d1f90613a91565b80601f0160208091040260200160405190810160405280929190818152602001828054610d4b90613a91565b8015610d985780601f10610d6d57610100808354040283529160200191610d98565b820191906000526020600020905b815481529060010190602001808311610d7b57829003601f168201915b5050505050905090565b6000610dad82611d82565b6004600083815260200190815260200160002060009054906101000a900473ffffffffffffffffffffffffffffffffffffffff169050919050565b6000610df38261116c565b90508073ffffffffffffffffffffffffffffffffffffffff168373ffffffffffffffffffffffffffffffffffffffff161415610e64576040517f08c379a0000000000000000000000000000000000000000000000000000000008152600401610e5b90613b35565b60405180910390fd5b8073ffffffffffffffffffffffffffffffffffffffff16610e83611dcd565b73ffffffffffffffffffffffffffffffffffffffff161480610eb25750610eb181610eac611dcd565b611a0e565b5b610ef1576040517f08c379a0000000000000000000000000000000000000000000000000000000008152600401610ee890613bc7565b60405180910390fd5b610efb8383611dd5565b505050565b610f08611e8e565b4381610f14919061399a565b600f8190555050565b6000600880549050905090565b60108054610f3790613a91565b80601f0160208091040260200160405190810160405280929190818152602001828054610f6390613a91565b8015610fb05780601f10610f8557610100808354040283529160200191610fb0565b820191906000526020600020905b815481529060010190602001808311610f9357829003601f168201915b505050505081565b610fc9610fc3611dcd565b82611f0c565b611008576040517f08c379a0000000000000000000000000000000000000000000000000000000008152600401610fff90613c59565b60405180910390fd5b611013838383611fa1565b505050565b60126020528060005260406000206000915090505481565b600061103b83611333565b821061107c576040517f08c379a000000000000000000000000000000000000000000000000000000000815260040161107390613ceb565b60405180910390fd5b600660008473ffffffffffffffffffffffffffffffffffffffff1673ffffffffffffffffffffffffffffffffffffffff168152602001908152602001600020600083815260200190815260200160002054905092915050565b6110f083838360405180602001604052806000815250611656565b505050565b600c5481565b6000611105610f1d565b8210611146576040517f08c379a000000000000000000000000000000000000000000000000000000000815260040161113d90613d7d565b60405180910390fd5b6008828154811061115a57611159613d9d565b5b90600052602060002001549050919050565b6000806111788361229b565b9050600073ffffffffffffffffffffffffffffffffffffffff168173ffffffffffffffffffffffffffffffffffffffff1614156111ea576040517f08c379a00000000000000000000000000000000000000000000000000000000081526004016111e190613e18565b60405180910390fd5b80915050919050565b3373ffffffffffffffffffffffffffffffffffffffff166112138261116c565b73ffffffffffffffffffffffffffffffffffffffff1614611269576040517f08c379a000000000000000000000000000000000000000000000000000000000815260040161126090613e84565b60405180910390fd5b6000601360008381526020019081526020016000208190555050565b61128d611e8e565b60003373ffffffffffffffffffffffffffffffffffffffff16476040516112b390613ed5565b60006040518083038185875af1925050503d80600081146112f0576040519150601f19603f3d011682016040523d82523d6000602084013e6112f5565b606091505b5050905080611330576040517f2684a07900000000000000000000000000000000000000000000000000000000815260040160405180910390fd5b50565b60008073ffffffffffffffffffffffffffffffffffffffff168273ffffffffffffffffffffffffffffffffffffffff1614156113a4576040517f08c379a000000000000000000000000000000000000000000000000000000000815260040161139b90613f5c565b60405180910390fd5b600360008373ffffffffffffffffffffffffffffffffffffffff1673ffffffffffffffffffffffffffffffffffffffff168152602001908152602001600020549050919050565b6113f3611e8e565b6113fd60006122d8565b565b3373ffffffffffffffffffffffffffffffffffffffff1661141f8361116c565b73ffffffffffffffffffffffffffffffffffffffff1614611475576040517f08c379a000000000000000000000000000000000000000000000000000000000815260040161146c90613e84565b60405180910390fd5b8060146000848152602001908152602001600020908051906020019061149c92919061315b565b505050565b6000600a60009054906101000a900473ffffffffffffffffffffffffffffffffffffffff16905090565b600e5481565b6060600180546114e090613a91565b80601f016020809104026020016040519081016040528092919081815260200182805461150c90613a91565b80156115595780601f1061152e57610100808354040283529160200191611559565b820191906000526020600020905b81548152906001019060200180831161153c57829003601f168201915b5050505050905090565b61156b611e8e565b80600e8190555050565b600d5481565b600f5481565b600047905090565b61159b611594611dcd565b838361239e565b5050565b600060136000838152602001908152602001600020549050919050565b600b5481565b6115ca611e8e565b600b5481600c546115db919061399a565b1115611613576040517f25d79e5f00000000000000000000000000000000000000000000000000000000815260040160405180910390fd5b60005b8181101561165157600c6000815461162d90613a19565b9190508190555061164083600c54611c82565b8061164a90613a19565b9050611616565b505050565b611667611661611dcd565b83611f0c565b6116a6576040517f08c379a000000000000000000000000000000000000000000000000000000000815260040161169d90613c59565b60405180910390fd5b6116b28484848461250b565b50505050565b60136020528060005260406000206000915090505481565b600043600f5411156116ef5743600f546116ea9190613f7c565b6116f2565b60005b905090565b6011818154811061170757600080fd5b906000526020600020016000915090505481565b6014602052806000526040600020600091509050805461173a90613a91565b80601f016020809104026020016040519081016040528092919081815260200182805461176690613a91565b80156117b35780601f10611788576101008083540402835291602001916117b3565b820191906000526020600020905b81548152906001019060200180831161179657829003601f168201915b505050505081565b6117c3611e8e565b600b5481600c546117d4919061399a565b111561180c576040517f25d79e5f00000000000000000000000000000000000000000000000000000000815260040160405180910390fd5b60005b8181101561184a57600c6000815461182690613a19565b9190508190555061183983600c54611c82565b8061184390613a19565b905061180f565b505050565b606043600f54116118b7576000611864612567565b9050600081511161188457604051806020016040528060008152506118af565b8061188e84612587565b60405160200161189f929190613fec565b6040516020818303038152906040525b915050611945565b601080546118c490613a91565b80601f01602080910402602001604051908101604052809291908181526020018280546118f090613a91565b801561193d5780601f106119125761010080835404028352916020019161193d565b820191906000526020600020905b81548152906001019060200180831161192057829003601f168201915b505050505090505b919050565b611952611e8e565b6000828290509050600b5481600c5461196b919061399a565b11156119a3576040517f25d79e5f00000000000000000000000000000000000000000000000000000000815260040160405180910390fd5b60005b81811015611a0857600c600081546119bd90613a19565b919050819055506119f78484838181106119da576119d9613d9d565b5b90506020020160208101906119ef9190613530565b600c54611c82565b80611a0190613a19565b90506119a6565b50505050565b6000600560008473ffffffffffffffffffffffffffffffffffffffff1673ffffffffffffffffffffffffffffffffffffffff16815260200190815260200160002060008373ffffffffffffffffffffffffffffffffffffffff1673ffffffffffffffffffffffffffffffffffffffff16815260200190815260200160002060009054906101000a900460ff16905092915050565b606060146000601360008581526020019081526020016000205481526020019081526020016000208054611ad590613a91565b80601f0160208091040260200160405190810160405280929190818152602001828054611b0190613a91565b8015611b4e5780601f10611b2357610100808354040283529160200191611b4e565b820191906000526020600020905b815481529060010190602001808311611b3157829003601f168201915b50505050509050919050565b611b62611e8e565b600073ffffffffffffffffffffffffffffffffffffffff168173ffffffffffffffffffffffffffffffffffffffff161415611bd2576040517f08c379a0000000000000000000000000000000000000000000000000000000008152600401611bc990614082565b60405180910390fd5b611bdb816122d8565b50565b3373ffffffffffffffffffffffffffffffffffffffff16611bfe8261116c565b73ffffffffffffffffffffffffffffffffffffffff1614611c54576040517f08c379a0000000000000000000000000000000000000000000000000000000008152600401611c4b90613e84565b60405180910390fd5b6001601360008381526020019081526020016000208190555050565b611c78611e8e565b80600d8190555050565b611c9c82826040518060200160405280600081525061265f565b5050565b60007f80ac58cd000000000000000000000000000000000000000000000000000000007bffffffffffffffffffffffffffffffffffffffffffffffffffffffff1916827bffffffffffffffffffffffffffffffffffffffffffffffffffffffff19161480611d6b57507f5b5e139f000000000000000000000000000000000000000000000000000000007bffffffffffffffffffffffffffffffffffffffffffffffffffffffff1916827bffffffffffffffffffffffffffffffffffffffffffffffffffffffff1916145b80611d7b5750611d7a826126ba565b5b9050919050565b611d8b81612724565b611dca576040517f08c379a0000000000000000000000000000000000000000000000000000000008152600401611dc190613e18565b60405180910390fd5b50565b600033905090565b816004600083815260200190815260200160002060006101000a81548173ffffffffffffffffffffffffffffffffffffffff021916908373ffffffffffffffffffffffffffffffffffffffff160217905550808273ffffffffffffffffffffffffffffffffffffffff16611e488361116c565b73ffffffffffffffffffffffffffffffffffffffff167f8c5be1e5ebec7d5bd14f71427d1e84f3dd0314c0f7b2291e5b200ac8c7c3b92560405160405180910390a45050565b611e96611dcd565b73ffffffffffffffffffffffffffffffffffffffff16611eb46114a1565b73ffffffffffffffffffffffffffffffffffffffff1614611f0a576040517f08c379a0000000000000000000000000000000000000000000000000000000008152600401611f01906140ee565b60405180910390fd5b565b600080611f188361116c565b90508073ffffffffffffffffffffffffffffffffffffffff168473ffffffffffffffffffffffffffffffffffffffff161480611f5a5750611f598185611a0e565b5b80611f9857508373ffffffffffffffffffffffffffffffffffffffff16611f8084610da2565b73ffffffffffffffffffffffffffffffffffffffff16145b91505092915050565b8273ffffffffffffffffffffffffffffffffffffffff16611fc18261116c565b73ffffffffffffffffffffffffffffffffffffffff1614612017576040517f08c379a000000000000000000000000000000000000000000000000000000000815260040161200e90614180565b60405180910390fd5b600073ffffffffffffffffffffffffffffffffffffffff168273ffffffffffffffffffffffffffffffffffffffff161415612087576040517f08c379a000000000000000000000000000000000000000000000000000000000815260040161207e90614212565b60405180910390fd5b6120948383836001612765565b8273ffffffffffffffffffffffffffffffffffffffff166120b48261116c565b73ffffffffffffffffffffffffffffffffffffffff161461210a576040517f08c379a000000000000000000000000000000000000000000000000000000000815260040161210190614180565b60405180910390fd5b6004600082815260200190815260200160002060006101000a81549073ffffffffffffffffffffffffffffffffffffffff02191690556001600360008573ffffffffffffffffffffffffffffffffffffffff1673ffffffffffffffffffffffffffffffffffffffff168152602001908152602001600020600082825403925050819055506001600360008473ffffffffffffffffffffffffffffffffffffffff1673ffffffffffffffffffffffffffffffffffffffff16815260200190815260200160002060008282540192505081905550816002600083815260200190815260200160002060006101000a81548173ffffffffffffffffffffffffffffffffffffffff021916908373ffffffffffffffffffffffffffffffffffffffff160217905550808273ffffffffffffffffffffffffffffffffffffffff168473ffffffffffffffffffffffffffffffffffffffff167fddf252ad1be2c89b69c2b068fc378daa952ba7f163c4a11628f55a4df523b3ef60405160405180910390a461229683838360016127cd565b505050565b60006002600083815260200190815260200160002060009054906101000a900473ffffffffffffffffffffffffffffffffffffffff169050919050565b6000600a60009054906101000a900473ffffffffffffffffffffffffffffffffffffffff16905081600a60006101000a81548173ffffffffffffffffffffffffffffffffffffffff021916908373ffffffffffffffffffffffffffffffffffffffff1602179055508173ffffffffffffffffffffffffffffffffffffffff168173ffffffffffffffffffffffffffffffffffffffff167f8be0079c531659141344cd1fd0a4f28419497f9722a3daafe3b4186f6b6457e060405160405180910390a35050565b8173ffffffffffffffffffffffffffffffffffffffff168373ffffffffffffffffffffffffffffffffffffffff16141561240d576040517f08c379a00000000000000000000000000000000000000000000000000000000081526004016124049061427e565b60405180910390fd5b80600560008573ffffffffffffffffffffffffffffffffffffffff1673ffffffffffffffffffffffffffffffffffffffff16815260200190815260200160002060008473ffffffffffffffffffffffffffffffffffffffff1673ffffffffffffffffffffffffffffffffffffffff16815260200190815260200160002060006101000a81548160ff0219169083151502179055508173ffffffffffffffffffffffffffffffffffffffff168373ffffffffffffffffffffffffffffffffffffffff167f17307eab39ab6107e8899845ad3d59bd9653f200f220920489ca2b5937696c31836040516124fe91906132b2565b60405180910390a3505050565b612516848484611fa1565b612522848484846127d3565b612561576040517f08c379a000000000000000000000000000000000000000000000000000000000815260040161255890614310565b60405180910390fd5b50505050565b60606040518060600160405280603d8152602001614648603d9139905090565b6060600060016125968461295b565b01905060008167ffffffffffffffff8111156125b5576125b4613567565b5b6040519080825280601f01601f1916602001820160405280156125e75781602001600182028036833780820191505090505b509050600082602001820190505b600115612654578080600190039150507f3031323334353637383961626364656600000000000000000000000000000000600a86061a8153600a858161263e5761263d614330565b5b049450600085141561264f57612654565b6125f5565b819350505050919050565b6126698383612aae565b61267660008484846127d3565b6126b5576040517f08c379a00000000000000000000000000000000000000000000000000000000081526004016126ac90614310565b60405180910390fd5b505050565b60007f01ffc9a7000000000000000000000000000000000000000000000000000000007bffffffffffffffffffffffffffffffffffffffffffffffffffffffff1916827bffffffffffffffffffffffffffffffffffffffffffffffffffffffff1916149050919050565b60008073ffffffffffffffffffffffffffffffffffffffff166127468361229b565b73ffffffffffffffffffffffffffffffffffffffff1614159050919050565b61277184848484612ccc565b60006013600084815260200190815260200160002054146127c7576040517f08c379a00000000000000000000000000000000000000000000000000000000081526004016127be906143ab565b60405180910390fd5b50505050565b50505050565b60006127f48473ffffffffffffffffffffffffffffffffffffffff16612e2c565b1561294e578373ffffffffffffffffffffffffffffffffffffffff1663150b7a0261281d611dcd565b8786866040518563ffffffff1660e01b815260040161283f9493929190614420565b6020604051808303816000875af192505050801561287b57506040513d601f19601f820116820180604052508101906128789190614481565b60015b6128fe573d80600081146128ab576040519150601f19603f3d011682016040523d82523d6000602084013e6128b0565b606091505b506000815114156128f6576040517f08c379a00000000000000000000000000000000000000000000000000000000081526004016128ed90614310565b60405180910390fd5b805181602001fd5b63150b7a0260e01b7bffffffffffffffffffffffffffffffffffffffffffffffffffffffff1916817bffffffffffffffffffffffffffffffffffffffffffffffffffffffff191614915050612953565b600190505b949350505050565b600080600090507a184f03e93ff9f4daa797ed6e38ed64bf6a1f01000000000000000083106129b9577a184f03e93ff9f4daa797ed6e38ed64bf6a1f01000000000000000083816129af576129ae614330565b5b0492506040810190505b6d04ee2d6d415b85acef810000000083106129f6576d04ee2d6d415b85acef810000000083816129ec576129eb614330565b5b0492506020810190505b662386f26fc100008310612a2557662386f26fc100008381612a1b57612a1a614330565b5b0492506010810190505b6305f5e1008310612a4e576305f5e1008381612a4457612a43614330565b5b0492506008810190505b6127108310612a73576127108381612a6957612a68614330565b5b0492506004810190505b60648310612a965760648381612a8c57612a8b614330565b5b0492506002810190505b600a8310612aa5576001810190505b80915050919050565b600073ffffffffffffffffffffffffffffffffffffffff168273ffffffffffffffffffffffffffffffffffffffff161415612b1e576040517f08c379a0000000000000000000000000000000000000000000000000000000008152600401612b15906144fa565b60405180910390fd5b612b2781612724565b15612b67576040517f08c379a0000000000000000000000000000000000000000000000000000000008152600401612b5e90614566565b60405180910390fd5b612b75600083836001612765565b612b7e81612724565b15612bbe576040517f08c379a0000000000000000000000000000000000000000000000000000000008152600401612bb590614566565b60405180910390fd5b6001600360008473ffffffffffffffffffffffffffffffffffffffff1673ffffffffffffffffffffffffffffffffffffffff16815260200190815260200160002060008282540192505081905550816002600083815260200190815260200160002060006101000a81548173ffffffffffffffffffffffffffffffffffffffff021916908373ffffffffffffffffffffffffffffffffffffffff160217905550808273ffffffffffffffffffffffffffffffffffffffff16600073ffffffffffffffffffffffffffffffffffffffff167fddf252ad1be2c89b69c2b068fc378daa952ba7f163c4a11628f55a4df523b3ef60405160405180910390a4612cc86000838360016127cd565b5050565b612cd884848484612e4f565b6001811115612d1c576040517f08c379a0000000000000000000000000000000000000000000000000000000008152600401612d13906145f8565b60405180910390fd5b6000829050600073ffffffffffffffffffffffffffffffffffffffff168573ffffffffffffffffffffffffffffffffffffffff161415612d6457612d5f81612e55565b612da3565b8373ffffffffffffffffffffffffffffffffffffffff168573ffffffffffffffffffffffffffffffffffffffff1614612da257612da18582612e9e565b5b5b600073ffffffffffffffffffffffffffffffffffffffff168473ffffffffffffffffffffffffffffffffffffffff161415612de657612de18161300b565b612e25565b8473ffffffffffffffffffffffffffffffffffffffff168473ffffffffffffffffffffffffffffffffffffffff1614612e2457612e2384826130dc565b5b5b5050505050565b6000808273ffffffffffffffffffffffffffffffffffffffff163b119050919050565b50505050565b6008805490506009600083815260200190815260200160002081905550600881908060018154018082558091505060019003906000526020600020016000909190919091505550565b60006001612eab84611333565b612eb59190613f7c565b9050600060076000848152602001908152602001600020549050818114612f9a576000600660008673ffffffffffffffffffffffffffffffffffffffff1673ffffffffffffffffffffffffffffffffffffffff168152602001908152602001600020600084815260200190815260200160002054905080600660008773ffffffffffffffffffffffffffffffffffffffff1673ffffffffffffffffffffffffffffffffffffffff168152602001908152602001600020600084815260200190815260200160002081905550816007600083815260200190815260200160002081905550505b6007600084815260200190815260200160002060009055600660008573ffffffffffffffffffffffffffffffffffffffff1673ffffffffffffffffffffffffffffffffffffffff16815260200190815260200160002060008381526020019081526020016000206000905550505050565b6000600160088054905061301f9190613f7c565b905060006009600084815260200190815260200160002054905060006008838154811061304f5761304e613d9d565b5b90600052602060002001549050806008838154811061307157613070613d9d565b5b9060005260206000200181905550816009600083815260200190815260200160002081905550600960008581526020019081526020016000206000905560088054806130c0576130bf614618565b5b6001900381819060005260206000200160009055905550505050565b60006130e783611333565b905081600660008573ffffffffffffffffffffffffffffffffffffffff1673ffffffffffffffffffffffffffffffffffffffff168152602001908152602001600020600083815260200190815260200160002081905550806007600084815260200190815260200160002081905550505050565b82805461316790613a91565b90600052602060002090601f01602090048101928261318957600085556131d0565b82601f106131a257805160ff19168380011785556131d0565b828001600101855582156131d0579182015b828111156131cf5782518255916020019190600101906131b4565b5b5090506131dd91906131e1565b5090565b5b808211156131fa5760008160009055506001016131e2565b5090565b6000604051905090565b600080fd5b600080fd5b60007fffffffff0000000000000000000000000000000000000000000000000000000082169050919050565b61324781613212565b811461325257600080fd5b50565b6000813590506132648161323e565b92915050565b6000602082840312156132805761327f613208565b5b600061328e84828501613255565b91505092915050565b60008115159050919050565b6132ac81613297565b82525050565b60006020820190506132c760008301846132a3565b92915050565b600081519050919050565b600082825260208201905092915050565b60005b838110156133075780820151818401526020810190506132ec565b83811115613316576000848401525b50505050565b6000601f19601f8301169050919050565b6000613338826132cd565b61334281856132d8565b93506133528185602086016132e9565b61335b8161331c565b840191505092915050565b60006020820190508181036000830152613380818461332d565b905092915050565b6000819050919050565b61339b81613388565b81146133a657600080fd5b50565b6000813590506133b881613392565b92915050565b6000602082840312156133d4576133d3613208565b5b60006133e2848285016133a9565b91505092915050565b600073ffffffffffffffffffffffffffffffffffffffff82169050919050565b6000613416826133eb565b9050919050565b6134268161340b565b82525050565b6000602082019050613441600083018461341d565b92915050565b6134508161340b565b811461345b57600080fd5b50565b60008135905061346d81613447565b92915050565b6000806040838503121561348a57613489613208565b5b60006134988582860161345e565b92505060206134a9858286016133a9565b9150509250929050565b6134bc81613388565b82525050565b60006020820190506134d760008301846134b3565b92915050565b6000806000606084860312156134f6576134f5613208565b5b60006135048682870161345e565b93505060206135158682870161345e565b9250506040613526868287016133a9565b9150509250925092565b60006020828403121561354657613545613208565b5b60006135548482850161345e565b91505092915050565b600080fd5b600080fd5b7f4e487b7100000000000000000000000000000000000000000000000000000000600052604160045260246000fd5b61359f8261331c565b810181811067ffffffffffffffff821117156135be576135bd613567565b5b80604052505050565b60006135d16131fe565b90506135dd8282613596565b919050565b600067ffffffffffffffff8211156135fd576135fc613567565b5b6136068261331c565b9050602081019050919050565b82818337600083830152505050565b6000613635613630846135e2565b6135c7565b90508281526020810184848401111561365157613650613562565b5b61365c848285613613565b509392505050565b600082601f8301126136795761367861355d565b5b8135613689848260208601613622565b91505092915050565b600080604083850312156136a9576136a8613208565b5b60006136b7858286016133a9565b925050602083013567ffffffffffffffff8111156136d8576136d761320d565b5b6136e485828601613664565b9150509250929050565b6136f781613297565b811461370257600080fd5b50565b600081359050613714816136ee565b92915050565b6000806040838503121561373157613730613208565b5b600061373f8582860161345e565b925050602061375085828601613705565b9150509250929050565b600067ffffffffffffffff82111561377557613774613567565b5b61377e8261331c565b9050602081019050919050565b600061379e6137998461375a565b6135c7565b9050828152602081018484840111156137ba576137b9613562565b5b6137c5848285613613565b509392505050565b600082601f8301126137e2576137e161355d565b5b81356137f284826020860161378b565b91505092915050565b6000806000806080858703121561381557613814613208565b5b60006138238782880161345e565b94505060206138348782880161345e565b9350506040613845878288016133a9565b925050606085013567ffffffffffffffff8111156138665761386561320d565b5b613872878288016137cd565b91505092959194509250565b600080fd5b600080fd5b60008083601f84011261389e5761389d61355d565b5b8235905067ffffffffffffffff8111156138bb576138ba61387e565b5b6020830191508360208202830111156138d7576138d6613883565b5b9250929050565b600080602083850312156138f5576138f4613208565b5b600083013567ffffffffffffffff8111156139135761391261320d565b5b61391f85828601613888565b92509250509250929050565b6000806040838503121561394257613941613208565b5b60006139508582860161345e565b92505060206139618582860161345e565b9150509250929050565b7f4e487b7100000000000000000000000000000000000000000000000000000000600052601160045260246000fd5b60006139a582613388565b91506139b083613388565b9250827fffffffffffffffffffffffffffffffffffffffffffffffffffffffffffffffff038211156139e5576139e461396b565b5b828201905092915050565b6000604082019050613a0560008301856134b3565b613a1260208301846134b3565b9392505050565b6000613a2482613388565b91507fffffffffffffffffffffffffffffffffffffffffffffffffffffffffffffffff821415613a5757613a5661396b565b5b600182019050919050565b7f4e487b7100000000000000000000000000000000000000000000000000000000600052602260045260246000fd5b60006002820490506001821680613aa957607f821691505b60208210811415613abd57613abc613a62565b5b50919050565b7f4552433732313a20617070726f76616c20746f2063757272656e74206f776e6560008201527f7200000000000000000000000000000000000000000000000000000000000000602082015250565b6000613b1f6021836132d8565b9150613b2a82613ac3565b604082019050919050565b60006020820190508181036000830152613b4e81613b12565b9050919050565b7f4552433732313a20617070726f76652063616c6c6572206973206e6f7420746f60008201527f6b656e206f776e6572206f7220617070726f76656420666f7220616c6c000000602082015250565b6000613bb1603d836132d8565b9150613bbc82613b55565b604082019050919050565b60006020820190508181036000830152613be081613ba4565b9050919050565b7f4552433732313a2063616c6c6572206973206e6f7420746f6b656e206f776e6560008201527f72206f7220617070726f76656400000000000000000000000000000000000000602082015250565b6000613c43602d836132d8565b9150613c4e82613be7565b604082019050919050565b60006020820190508181036000830152613c7281613c36565b9050919050565b7f455243373231456e756d657261626c653a206f776e657220696e646578206f7560008201527f74206f6620626f756e6473000000000000000000000000000000000000000000602082015250565b6000613cd5602b836132d8565b9150613ce082613c79565b604082019050919050565b60006020820190508181036000830152613d0481613cc8565b9050919050565b7f455243373231456e756d657261626c653a20676c6f62616c20696e646578206f60008201527f7574206f6620626f756e64730000000000000000000000000000000000000000602082015250565b6000613d67602c836132d8565b9150613d7282613d0b565b604082019050919050565b60006020820190508181036000830152613d9681613d5a565b9050919050565b7f4e487b7100000000000000000000000000000000000000000000000000000000600052603260045260246000fd5b7f4552433732313a20696e76616c696420746f6b656e2049440000000000000000600082015250565b6000613e026018836132d8565b9150613e0d82613dcc565b602082019050919050565b60006020820190508181036000830152613e3181613df5565b9050919050565b7f6f6e6c79206e6674206f776e65722063616e2062652e00000000000000000000600082015250565b6000613e6e6016836132d8565b9150613e7982613e38565b602082019050919050565b60006020820190508181036000830152613e9d81613e61565b9050919050565b600081905092915050565b50565b6000613ebf600083613ea4565b9150613eca82613eaf565b600082019050919050565b6000613ee082613eb2565b9150819050919050565b7f4552433732313a2061646472657373207a65726f206973206e6f74206120766160008201527f6c6964206f776e65720000000000000000000000000000000000000000000000602082015250565b6000613f466029836132d8565b9150613f5182613eea565b604082019050919050565b60006020820190508181036000830152613f7581613f39565b9050919050565b6000613f8782613388565b9150613f9283613388565b925082821015613fa557613fa461396b565b5b828203905092915050565b600081905092915050565b6000613fc6826132cd565b613fd08185613fb0565b9350613fe08185602086016132e9565b80840191505092915050565b6000613ff88285613fbb565b91506140048284613fbb565b91508190509392505050565b7f4f776e61626c653a206e6577206f776e657220697320746865207a65726f206160008201527f6464726573730000000000000000000000000000000000000000000000000000602082015250565b600061406c6026836132d8565b915061407782614010565b604082019050919050565b6000602082019050818103600083015261409b8161405f565b9050919050565b7f4f776e61626c653a2063616c6c6572206973206e6f7420746865206f776e6572600082015250565b60006140d86020836132d8565b91506140e3826140a2565b602082019050919050565b60006020820190508181036000830152614107816140cb565b9050919050565b7f4552433732313a207472616e736665722066726f6d20696e636f72726563742060008201527f6f776e6572000000000000000000000000000000000000000000000000000000602082015250565b600061416a6025836132d8565b91506141758261410e565b604082019050919050565b600060208201905081810360008301526141998161415d565b9050919050565b7f4552433732313a207472616e7366657220746f20746865207a65726f2061646460008201527f7265737300000000000000000000000000000000000000000000000000000000602082015250565b60006141fc6024836132d8565b9150614207826141a0565b604082019050919050565b6000602082019050818103600083015261422b816141ef565b9050919050565b7f4552433732313a20617070726f766520746f2063616c6c657200000000000000600082015250565b60006142686019836132d8565b915061427382614232565b602082019050919050565b600060208201905081810360008301526142978161425b565b9050919050565b7f4552433732313a207472616e7366657220746f206e6f6e20455243373231526560008201527f63656976657220696d706c656d656e7465720000000000000000000000000000602082015250565b60006142fa6032836132d8565b91506143058261429e565b604082019050919050565b60006020820190508181036000830152614329816142ed565b9050919050565b7f4e487b7100000000000000000000000000000000000000000000000000000000600052601260045260246000fd5b7f697420697320626c6f636b000000000000000000000000000000000000000000600082015250565b6000614395600b836132d8565b91506143a08261435f565b602082019050919050565b600060208201905081810360008301526143c481614388565b9050919050565b600081519050919050565b600082825260208201905092915050565b60006143f2826143cb565b6143fc81856143d6565b935061440c8185602086016132e9565b6144158161331c565b840191505092915050565b6000608082019050614435600083018761341d565b614442602083018661341d565b61444f60408301856134b3565b818103606083015261446181846143e7565b905095945050505050565b60008151905061447b8161323e565b92915050565b60006020828403121561449757614496613208565b5b60006144a58482850161446c565b91505092915050565b7f4552433732313a206d696e7420746f20746865207a65726f2061646472657373600082015250565b60006144e46020836132d8565b91506144ef826144ae565b602082019050919050565b60006020820190508181036000830152614513816144d7565b9050919050565b7f4552433732313a20746f6b656e20616c7265616479206d696e74656400000000600082015250565b6000614550601c836132d8565b915061455b8261451a565b602082019050919050565b6000602082019050818103600083015261457f81614543565b9050919050565b7f455243373231456e756d657261626c653a20636f6e736563757469766520747260008201527f616e7366657273206e6f7420737570706f727465640000000000000000000000602082015250565b60006145e26035836132d8565b91506145ed82614586565b604082019050919050565b60006020820190508181036000830152614611816145d5565b9050919050565b7f4e487b7100000000000000000000000000000000000000000000000000000000600052603160045260246000fdfe68747470733a2f2f6170692e6d6574616178656c2e6f6e6c696e652f6170692f76312f646174612f6275726e7470696e6b737175616466616d6565642fa26469706673582212204b975d674323af6ef46cb5c5f84f93244e4d8f009b5a869aa0c1b2b10f3a8b6164736f6c634300080b0033",
  "linkReferences": {},
  "deployedLinkReferences": {}
}