{
  "_format": "hh-sol-artifact-1",
  "contractName": "TestMint",
  "sourceName": "contracts/D_one.sol",
  "abi": [
    {
      "inputs": [
        {
          "internalType": "string",
          "name": "_name",
          "type": "string"
        },
        {
          "internalType": "string",
          "name": "_symbol",
          "type": "string"
        },
        {
          "internalType": "uint256",
          "name": "_limit",
          "type": "uint256"
        },
        {
          "internalType": "uint256",
          "name": "_price",
          "type": "uint256"
        },
        {
          "internalType": "uint256",
          "name": "_interval",
          "type": "uint256"
        },
        {
          "internalType": "uint256",
          "name": "_revelingBlock",
          "type": "uint256"
        },
        {
          "internalType": "string",
          "name": "_notReveledNFTURI",
          "type": "string"
        }
      ],
      "stateMutability": "nonpayable",
      "type": "constructor"
    },
    {
      "inputs": [],
      "name": "FailedToWithdraw",
      "type": "error"
    },
    {
      "inputs": [
        {
          "internalType": "uint256",
          "name": "paidPrice",
          "type": "uint256"
        },
        {
          "internalType": "uint256",
          "name": "price",
          "type": "uint256"
        }
      ],
      "name": "InsufficientValue",
      "type": "error"
    },
    {
      "inputs": [],
      "name": "OutOfNfts",
      "type": "error"
    },
    {
      "inputs": [
        {
          "internalType": "uint256",
          "name": "tillBlock",
          "type": "uint256"
        },
        {
          "internalType": "uint256",
          "name": "currentBlock",
          "type": "uint256"
        }
      ],
      "name": "WaitForACoupleOfBlocks",
      "type": "error"
    },
    {
      "anonymous": false,
      "inputs": [
        {
          "indexed": true,
          "internalType": "address",
          "name": "owner",
          "type": "address"
        },
        {
          "indexed": true,
          "internalType": "address",
          "name": "approved",
          "type": "address"
        },
        {
          "indexed": true,
          "internalType": "uint256",
          "name": "tokenId",
          "type": "uint256"
        }
      ],
      "name": "Approval",
      "type": "event"
    },
    {
      "anonymous": false,
      "inputs": [
        {
          "indexed": true,
          "internalType": "address",
          "name": "owner",
          "type": "address"
        },
        {
          "indexed": true,
          "internalType": "address",
          "name": "operator",
          "type": "address"
        },
        {
          "indexed": false,
          "internalType": "bool",
          "name": "approved",
          "type": "bool"
        }
      ],
      "name": "ApprovalForAll",
      "type": "event"
    },
    {
      "anonymous": false,
      "inputs": [
        {
          "indexed": true,
          "internalType": "address",
          "name": "previousOwner",
          "type": "address"
        },
        {
          "indexed": true,
          "internalType": "address",
          "name": "newOwner",
          "type": "address"
        }
      ],
      "name": "OwnershipTransferred",
      "type": "event"
    },
    {
      "anonymous": false,
      "inputs": [
        {
          "indexed": true,
          "internalType": "address",
          "name": "from",
          "type": "address"
        },
        {
          "indexed": true,
          "internalType": "address",
          "name": "to",
          "type": "address"
        },
        {
          "indexed": true,
          "internalType": "uint256",
          "name": "tokenId",
          "type": "uint256"
        }
      ],
      "name": "Transfer",
      "type": "event"
    },
    {
      "inputs": [
        {
          "internalType": "address",
          "name": "",
          "type": "address"
        }
      ],
      "name": "NumberTracker",
      "outputs": [
        {
          "internalType": "uint256",
          "name": "",
          "type": "uint256"
        }
      ],
      "stateMutability": "view",
      "type": "function"
    },
    {
      "inputs": [
        {
          "internalType": "address",
          "name": "to",
          "type": "address"
        },
        {
          "internalType": "uint256",
          "name": "tokenId",
          "type": "uint256"
        }
      ],
      "name": "approve",
      "outputs": [],
      "stateMutability": "nonpayable",
      "type": "function"
    },
    {
      "inputs": [
        {
          "internalType": "address",
          "name": "owner",
          "type": "address"
        }
      ],
      "name": "balanceOf",
      "outputs": [
        {
          "internalType": "uint256",
          "name": "",
          "type": "uint256"
        }
      ],
      "stateMutability": "view",
      "type": "function"
    },
    {
      "inputs": [
        {
          "internalType": "uint256",
          "name": "tokenId",
          "type": "uint256"
        }
      ],
      "name": "getApproved",
      "outputs": [
        {
          "internalType": "address",
          "name": "",
          "type": "address"
        }
      ],
      "stateMutability": "view",
      "type": "function"
    },
    {
      "inputs": [],
      "name": "interval",
      "outputs": [
        {
          "internalType": "uint256",
          "name": "",
          "type": "uint256"
        }
      ],
      "stateMutability": "view",
      "type": "function"
    },
    {
      "inputs": [
        {
          "internalType": "address",
          "name": "owner",
          "type": "address"
        },
        {
          "internalType": "address",
          "name": "operator",
          "type": "address"
        }
      ],
      "name": "isApprovedForAll",
      "outputs": [
        {
          "internalType": "bool",
          "name": "",
          "type": "bool"
        }
      ],
      "stateMutability": "view",
      "type": "function"
    },
    {
      "inputs": [],
      "name": "latestId",
      "outputs": [
        {
          "internalType": "uint256",
          "name": "",
          "type": "uint256"
        }
      ],
      "stateMutability": "view",
      "type": "function"
    },
    {
      "inputs": [],
      "name": "limit",
      "outputs": [
        {
          "internalType": "uint256",
          "name": "",
          "type": "uint256"
        }
      ],
      "stateMutability": "view",
      "type": "function"
    },
    {
      "inputs": [],
      "name": "mint",
      "outputs": [],
      "stateMutability": "payable",
      "type": "function"
    },
    {
      "inputs": [],
      "name": "name",
      "outputs": [
        {
          "internalType": "string",
          "name": "",
          "type": "string"
        }
      ],
      "stateMutability": "view",
      "type": "function"
    },
    {
      "inputs": [],
      "name": "notReveledNFTURI",
      "outputs": [
        {
          "internalType": "string",
          "name": "",
          "type": "string"
        }
      ],
      "stateMutability": "view",
      "type": "function"
    },
    {
      "inputs": [],
      "name": "owner",
      "outputs": [
        {
          "internalType": "address",
          "name": "",
          "type": "address"
        }
      ],
      "stateMutability": "view",
      "type": "function"
    },
    {
      "inputs": [
        {
          "internalType": "uint256",
          "name": "tokenId",
          "type": "uint256"
        }
      ],
      "name": "ownerOf",
      "outputs": [
        {
          "internalType": "address",
          "name": "",
          "type": "address"
        }
      ],
      "stateMutability": "view",
      "type": "function"
    },
    {
      "inputs": [],
      "name": "price",
      "outputs": [
        {
          "internalType": "uint256",
          "name": "",
          "type": "uint256"
        }
      ],
      "stateMutability": "view",
      "type": "function"
    },
    {
      "inputs": [],
      "name": "renounceOwnership",
      "outputs": [],
      "stateMutability": "nonpayable",
      "type": "function"
    },
    {
      "inputs": [],
      "name": "revelingBlock",
      "outputs": [
        {
          "internalType": "uint256",
          "name": "",
          "type": "uint256"
        }
      ],
      "stateMutability": "view",
      "type": "function"
    },
    {
      "inputs": [
        {
          "internalType": "address",
          "name": "from",
          "type": "address"
        },
        {
          "internalType": "address",
          "name": "to",
          "type": "address"
        },
        {
          "internalType": "uint256",
          "name": "tokenId",
          "type": "uint256"
        }
      ],
      "name": "safeTransferFrom",
      "outputs": [],
      "stateMutability": "nonpayable",
      "type": "function"
    },
    {
      "inputs": [
        {
          "internalType": "address",
          "name": "from",
          "type": "address"
        },
        {
          "internalType": "address",
          "name": "to",
          "type": "address"
        },
        {
          "internalType": "uint256",
          "name": "tokenId",
          "type": "uint256"
        },
        {
          "internalType": "bytes",
          "name": "data",
          "type": "bytes"
        }
      ],
      "name": "safeTransferFrom",
      "outputs": [],
      "stateMutability": "nonpayable",
      "type": "function"
    },
    {
      "inputs": [
        {
          "internalType": "address",
          "name": "operator",
          "type": "address"
        },
        {
          "internalType": "bool",
          "name": "approved",
          "type": "bool"
        }
      ],
      "name": "setApprovalForAll",
      "outputs": [],
      "stateMutability": "nonpayable",
      "type": "function"
    },
    {
      "inputs": [
        {
          "internalType": "bytes4",
          "name": "interfaceId",
          "type": "bytes4"
        }
      ],
      "name": "supportsInterface",
      "outputs": [
        {
          "internalType": "bool",
          "name": "",
          "type": "bool"
        }
      ],
      "stateMutability": "view",
      "type": "function"
    },
    {
      "inputs": [],
      "name": "symbol",
      "outputs": [
        {
          "internalType": "string",
          "name": "",
          "type": "string"
        }
      ],
      "stateMutability": "view",
      "type": "function"
    },
    {
      "inputs": [
        {
          "internalType": "uint256",
          "name": "index",
          "type": "uint256"
        }
      ],
      "name": "tokenByIndex",
      "outputs": [
        {
          "internalType": "uint256",
          "name": "",
          "type": "uint256"
        }
      ],
      "stateMutability": "view",
      "type": "function"
    },
    {
      "inputs": [
        {
          "internalType": "address",
          "name": "owner",
          "type": "address"
        },
        {
          "internalType": "uint256",
          "name": "index",
          "type": "uint256"
        }
      ],
      "name": "tokenOfOwnerByIndex",
      "outputs": [
        {
          "internalType": "uint256",
          "name": "",
          "type": "uint256"
        }
      ],
      "stateMutability": "view",
      "type": "function"
    },
    {
      "inputs": [
        {
          "internalType": "uint256",
          "name": "tokenId",
          "type": "uint256"
        }
      ],
      "name": "tokenURI",
      "outputs": [
        {
          "internalType": "string",
          "name": "",
          "type": "string"
        }
      ],
      "stateMutability": "view",
      "type": "function"
    },
    {
      "inputs": [],
      "name": "totalSupply",
      "outputs": [
        {
          "internalType": "uint256",
          "name": "",
          "type": "uint256"
        }
      ],
      "stateMutability": "view",
      "type": "function"
    },
    {
      "inputs": [
        {
          "internalType": "address",
          "name": "from",
          "type": "address"
        },
        {
          "internalType": "address",
          "name": "to",
          "type": "address"
        },
        {
          "internalType": "uint256",
          "name": "tokenId",
          "type": "uint256"
        }
      ],
      "name": "transferFrom",
      "outputs": [],
      "stateMutability": "nonpayable",
      "type": "function"
    },
    {
      "inputs": [
        {
          "internalType": "address",
          "name": "newOwner",
          "type": "address"
        }
      ],
      "name": "transferOwnership",
      "outputs": [],
      "stateMutability": "nonpayable",
      "type": "function"
    },
    {
      "inputs": [
        {
          "internalType": "address",
          "name": "_to",
          "type": "address"
        },
        {
          "internalType": "uint256",
          "name": "_number",
          "type": "uint256"
        }
      ],
      "name": "u_airdrop",
      "outputs": [],
      "stateMutability": "nonpayable",
      "type": "function"
    },
    {
      "inputs": [
        {
          "internalType": "address[]",
          "name": "_to",
          "type": "address[]"
        }
      ],
      "name": "u_airdrop2",
      "outputs": [],
      "stateMutability": "nonpayable",
      "type": "function"
    },
    {
      "inputs": [],
      "name": "u_currentBalance",
      "outputs": [
        {
          "internalType": "uint256",
          "name": "",
          "type": "uint256"
        }
      ],
      "stateMutability": "view",
      "type": "function"
    },
    {
      "inputs": [
        {
          "internalType": "address",
          "name": "_to",
          "type": "address"
        },
        {
          "internalType": "uint256",
          "name": "_number",
          "type": "uint256"
        }
      ],
      "name": "u_mint",
      "outputs": [],
      "stateMutability": "nonpayable",
      "type": "function"
    },
    {
      "inputs": [
        {
          "internalType": "uint256",
          "name": "_interval",
          "type": "uint256"
        }
      ],
      "name": "u_setInterval",
      "outputs": [],
      "stateMutability": "nonpayable",
      "type": "function"
    },
    {
      "inputs": [
        {
          "internalType": "uint256",
          "name": "_price",
          "type": "uint256"
        }
      ],
      "name": "u_setPrice",
      "outputs": [],
      "stateMutability": "nonpayable",
      "type": "function"
    },
    {
      "inputs": [
        {
          "internalType": "uint256",
          "name": "_revelingBlock",
          "type": "uint256"
        }
      ],
      "name": "u_setRevelingBlock",
      "outputs": [],
      "stateMutability": "nonpayable",
      "type": "function"
    },
    {
      "inputs": [],
      "name": "u_whenToRevelNFTs",
      "outputs": [
        {
          "internalType": "uint256",
          "name": "",
          "type": "uint256"
        }
      ],
      "stateMutability": "view",
      "type": "function"
    },
    {
      "inputs": [],
      "name": "u_withdraw",
      "outputs": [],
      "stateMutability": "nonpayable",
      "type": "function"
    },
    {
      "stateMutability": "payable",
      "type": "receive"
    }
  ],
  "bytecode": "0x60806040523480156200001157600080fd5b506040516200449138038062004491833981810160405281019062000037919062000432565b8686816000908051906020019062000051929190620001aa565b5080600190805190602001906200006a929190620001aa565b5050506200008d62000081620000dc60201b60201c565b620000e460201b60201c565b84600b8190555083600d8190555082600e819055504382620000b0919062000571565b600f819055508060109080519060200190620000ce929190620001aa565b505050505050505062000633565b600033905090565b6000600a60009054906101000a900473ffffffffffffffffffffffffffffffffffffffff16905081600a60006101000a81548173ffffffffffffffffffffffffffffffffffffffff021916908373ffffffffffffffffffffffffffffffffffffffff1602179055508173ffffffffffffffffffffffffffffffffffffffff168173ffffffffffffffffffffffffffffffffffffffff167f8be0079c531659141344cd1fd0a4f28419497f9722a3daafe3b4186f6b6457e060405160405180910390a35050565b828054620001b890620005fd565b90600052602060002090601f016020900481019282620001dc576000855562000228565b82601f10620001f757805160ff191683800117855562000228565b8280016001018555821562000228579182015b82811115620002275782518255916020019190600101906200020a565b5b5090506200023791906200023b565b5090565b5b80821115620002565760008160009055506001016200023c565b5090565b6000604051905090565b600080fd5b600080fd5b600080fd5b600080fd5b6000601f19601f8301169050919050565b7f4e487b7100000000000000000000000000000000000000000000000000000000600052604160045260246000fd5b620002c38262000278565b810181811067ffffffffffffffff82111715620002e557620002e462000289565b5b80604052505050565b6000620002fa6200025a565b9050620003088282620002b8565b919050565b600067ffffffffffffffff8211156200032b576200032a62000289565b5b620003368262000278565b9050602081019050919050565b60005b838110156200036357808201518184015260208101905062000346565b8381111562000373576000848401525b50505050565b6000620003906200038a846200030d565b620002ee565b905082815260208101848484011115620003af57620003ae62000273565b5b620003bc84828562000343565b509392505050565b600082601f830112620003dc57620003db6200026e565b5b8151620003ee84826020860162000379565b91505092915050565b6000819050919050565b6200040c81620003f7565b81146200041857600080fd5b50565b6000815190506200042c8162000401565b92915050565b600080600080600080600060e0888a03121562000454576200045362000264565b5b600088015167ffffffffffffffff81111562000475576200047462000269565b5b620004838a828b01620003c4565b975050602088015167ffffffffffffffff811115620004a757620004a662000269565b5b620004b58a828b01620003c4565b9650506040620004c88a828b016200041b565b9550506060620004db8a828b016200041b565b9450506080620004ee8a828b016200041b565b93505060a0620005018a828b016200041b565b92505060c088015167ffffffffffffffff81111562000525576200052462000269565b5b620005338a828b01620003c4565b91505092959891949750929550565b7f4e487b7100000000000000000000000000000000000000000000000000000000600052601160045260246000fd5b60006200057e82620003f7565b91506200058b83620003f7565b9250827fffffffffffffffffffffffffffffffffffffffffffffffffffffffffffffffff03821115620005c357620005c262000542565b5b828201905092915050565b7f4e487b7100000000000000000000000000000000000000000000000000000000600052602260045260246000fd5b600060028204905060018216806200061657607f821691505b602082108114156200062d576200062c620005ce565b5b50919050565b613e4e80620006436000396000f3fe6080604052600436106102135760003560e01c80638da5cb5b11610118578063b356fc1a116100a0578063c87b56dd1161006f578063c87b56dd1461077f578063e028dc9f146107bc578063e985e9c5146107e5578063f2fde38b14610822578063f7ef0fa81461084b57610222565b8063b356fc1a146106d9578063b88d4fde14610702578063c1efcf181461072b578063c79ac7961461075657610222565b8063a035b1fe116100e7578063a035b1fe14610604578063a06995021461062f578063a21301a51461065a578063a22cb46514610685578063a4d66daf146106ae57610222565b80638da5cb5b1461055a578063947a36fb1461058557806395d89b41146105b05780639e024b7a146105db57610222565b806324409c301161019b5780634f6ccce71161016a5780634f6ccce7146104755780636352211e146104b25780636af047a4146104ef57806370a0823114610506578063715018a61461054357610222565b806324409c30146103a75780632f745c59146103e457806342842e0e146104215780634bfbbe0b1461044a57610222565b806310f362eb116101e257806310f362eb146102f55780631249c58b1461031e57806318160ddd146103285780631d5ae7c81461035357806323b872dd1461037e57610222565b806301ffc9a71461022757806306fdde0314610264578063081812fc1461028f578063095ea7b3146102cc57610222565b3661022257610220610874565b005b600080fd5b34801561023357600080fd5b5061024e60048036038101906102499190612be4565b610a92565b60405161025b9190612c2c565b60405180910390f35b34801561027057600080fd5b50610279610b0c565b6040516102869190612ce0565b60405180910390f35b34801561029b57600080fd5b506102b660048036038101906102b19190612d38565b610b9e565b6040516102c39190612da6565b60405180910390f35b3480156102d857600080fd5b506102f360048036038101906102ee9190612ded565b610be4565b005b34801561030157600080fd5b5061031c60048036038101906103179190612d38565b610cfc565b005b610326610874565b005b34801561033457600080fd5b5061033d610d19565b60405161034a9190612e3c565b60405180910390f35b34801561035f57600080fd5b50610368610d26565b6040516103759190612ce0565b60405180910390f35b34801561038a57600080fd5b506103a560048036038101906103a09190612e57565b610db4565b005b3480156103b357600080fd5b506103ce60048036038101906103c99190612eaa565b610e14565b6040516103db9190612e3c565b60405180910390f35b3480156103f057600080fd5b5061040b60048036038101906104069190612ded565b610e2c565b6040516104189190612e3c565b60405180910390f35b34801561042d57600080fd5b5061044860048036038101906104439190612e57565b610ed1565b005b34801561045657600080fd5b5061045f610ef1565b60405161046c9190612e3c565b60405180910390f35b34801561048157600080fd5b5061049c60048036038101906104979190612d38565b610ef7565b6040516104a99190612e3c565b60405180910390f35b3480156104be57600080fd5b506104d960048036038101906104d49190612d38565b610f68565b6040516104e69190612da6565b60405180910390f35b3480156104fb57600080fd5b50610504610fef565b005b34801561051257600080fd5b5061052d60048036038101906105289190612eaa565b61109d565b60405161053a9190612e3c565b60405180910390f35b34801561054f57600080fd5b50610558611155565b005b34801561056657600080fd5b5061056f611169565b60405161057c9190612da6565b60405180910390f35b34801561059157600080fd5b5061059a611193565b6040516105a79190612e3c565b60405180910390f35b3480156105bc57600080fd5b506105c5611199565b6040516105d29190612ce0565b60405180910390f35b3480156105e757600080fd5b5061060260048036038101906105fd9190612d38565b61122b565b005b34801561061057600080fd5b5061061961123d565b6040516106269190612e3c565b60405180910390f35b34801561063b57600080fd5b50610644611243565b6040516106519190612e3c565b60405180910390f35b34801561066657600080fd5b5061066f611249565b60405161067c9190612e3c565b60405180910390f35b34801561069157600080fd5b506106ac60048036038101906106a79190612f03565b611251565b005b3480156106ba57600080fd5b506106c3611267565b6040516106d09190612e3c565b60405180910390f35b3480156106e557600080fd5b5061070060048036038101906106fb9190612ded565b61126d565b005b34801561070e57600080fd5b5061072960048036038101906107249190613078565b611301565b005b34801561073757600080fd5b50610740611363565b60405161074d9190612e3c565b60405180910390f35b34801561076257600080fd5b5061077d60048036038101906107789190612ded565b61138a565b005b34801561078b57600080fd5b506107a660048036038101906107a19190612d38565b61141e565b6040516107b39190612ce0565b60405180910390f35b3480156107c857600080fd5b506107e360048036038101906107de919061315b565b611519565b005b3480156107f157600080fd5b5061080c600480360381019061080791906131a8565b6115dd565b6040516108199190612c2c565b60405180910390f35b34801561082e57600080fd5b5061084960048036038101906108449190612eaa565b611671565b005b34801561085757600080fd5b50610872600480360381019061086d9190612d38565b6116f5565b005b6000601160003373ffffffffffffffffffffffffffffffffffffffff1673ffffffffffffffffffffffffffffffffffffffff16815260200190815260200160002054146109105743600e54601160003373ffffffffffffffffffffffffffffffffffffffff1673ffffffffffffffffffffffffffffffffffffffff168152602001908152602001600020546109099190613217565b1015610913565b60005b156109a357600e54601160003373ffffffffffffffffffffffffffffffffffffffff1673ffffffffffffffffffffffffffffffffffffffff168152602001908152602001600020546109659190613217565b436040517f5577bb1f00000000000000000000000000000000000000000000000000000000815260040161099a92919061326d565b60405180910390fd5b34600d54146109ed5734600d546040517f7040b58c0000000000000000000000000000000000000000000000000000000081526004016109e492919061326d565b60405180910390fd5b600b54600c5410610a2a576040517f25d79e5f00000000000000000000000000000000000000000000000000000000815260040160405180910390fd5b600c60008154610a3990613296565b91905081905550610a4c33600c54611707565b43601160003373ffffffffffffffffffffffffffffffffffffffff1673ffffffffffffffffffffffffffffffffffffffff16815260200190815260200160002081905550565b60007f780e9d63000000000000000000000000000000000000000000000000000000007bffffffffffffffffffffffffffffffffffffffffffffffffffffffff1916827bffffffffffffffffffffffffffffffffffffffffffffffffffffffff19161480610b055750610b0482611725565b5b9050919050565b606060008054610b1b9061330e565b80601f0160208091040260200160405190810160405280929190818152602001828054610b479061330e565b8015610b945780601f10610b6957610100808354040283529160200191610b94565b820191906000526020600020905b815481529060010190602001808311610b7757829003601f168201915b5050505050905090565b6000610ba982611807565b6004600083815260200190815260200160002060009054906101000a900473ffffffffffffffffffffffffffffffffffffffff169050919050565b6000610bef82610f68565b90508073ffffffffffffffffffffffffffffffffffffffff168373ffffffffffffffffffffffffffffffffffffffff161415610c60576040517f08c379a0000000000000000000000000000000000000000000000000000000008152600401610c57906133b2565b60405180910390fd5b8073ffffffffffffffffffffffffffffffffffffffff16610c7f611852565b73ffffffffffffffffffffffffffffffffffffffff161480610cae5750610cad81610ca8611852565b6115dd565b5b610ced576040517f08c379a0000000000000000000000000000000000000000000000000000000008152600401610ce490613444565b60405180910390fd5b610cf7838361185a565b505050565b610d04611913565b4381610d109190613217565b600f8190555050565b6000600880549050905090565b60108054610d339061330e565b80601f0160208091040260200160405190810160405280929190818152602001828054610d5f9061330e565b8015610dac5780601f10610d8157610100808354040283529160200191610dac565b820191906000526020600020905b815481529060010190602001808311610d8f57829003601f168201915b505050505081565b610dc5610dbf611852565b82611991565b610e04576040517f08c379a0000000000000000000000000000000000000000000000000000000008152600401610dfb906134d6565b60405180910390fd5b610e0f838383611a26565b505050565b60116020528060005260406000206000915090505481565b6000610e378361109d565b8210610e78576040517f08c379a0000000000000000000000000000000000000000000000000000000008152600401610e6f90613568565b60405180910390fd5b600660008473ffffffffffffffffffffffffffffffffffffffff1673ffffffffffffffffffffffffffffffffffffffff168152602001908152602001600020600083815260200190815260200160002054905092915050565b610eec83838360405180602001604052806000815250611301565b505050565b600c5481565b6000610f01610d19565b8210610f42576040517f08c379a0000000000000000000000000000000000000000000000000000000008152600401610f39906135fa565b60405180910390fd5b60088281548110610f5657610f5561361a565b5b90600052602060002001549050919050565b600080610f7483611d20565b9050600073ffffffffffffffffffffffffffffffffffffffff168173ffffffffffffffffffffffffffffffffffffffff161415610fe6576040517f08c379a0000000000000000000000000000000000000000000000000000000008152600401610fdd90613695565b60405180910390fd5b80915050919050565b610ff7611913565b60003373ffffffffffffffffffffffffffffffffffffffff164760405161101d906136e6565b60006040518083038185875af1925050503d806000811461105a576040519150601f19603f3d011682016040523d82523d6000602084013e61105f565b606091505b505090508061109a576040517f2684a07900000000000000000000000000000000000000000000000000000000815260040160405180910390fd5b50565b60008073ffffffffffffffffffffffffffffffffffffffff168273ffffffffffffffffffffffffffffffffffffffff16141561110e576040517f08c379a00000000000000000000000000000000000000000000000000000000081526004016111059061376d565b60405180910390fd5b600360008373ffffffffffffffffffffffffffffffffffffffff1673ffffffffffffffffffffffffffffffffffffffff168152602001908152602001600020549050919050565b61115d611913565b6111676000611d5d565b565b6000600a60009054906101000a900473ffffffffffffffffffffffffffffffffffffffff16905090565b600e5481565b6060600180546111a89061330e565b80601f01602080910402602001604051908101604052809291908181526020018280546111d49061330e565b80156112215780601f106111f657610100808354040283529160200191611221565b820191906000526020600020905b81548152906001019060200180831161120457829003601f168201915b5050505050905090565b611233611913565b80600e8190555050565b600d5481565b600f5481565b600047905090565b61126361125c611852565b8383611e23565b5050565b600b5481565b611275611913565b600b5481600c546112869190613217565b11156112be576040517f25d79e5f00000000000000000000000000000000000000000000000000000000815260040160405180910390fd5b60005b818110156112fc57600c600081546112d890613296565b919050819055506112eb83600c54611707565b806112f590613296565b90506112c1565b505050565b61131261130c611852565b83611991565b611351576040517f08c379a0000000000000000000000000000000000000000000000000000000008152600401611348906134d6565b60405180910390fd5b61135d84848484611f90565b50505050565b600043600f5411156113825743600f5461137d919061378d565b611385565b60005b905090565b611392611913565b600b5481600c546113a39190613217565b11156113db576040517f25d79e5f00000000000000000000000000000000000000000000000000000000815260040160405180910390fd5b60005b8181101561141957600c600081546113f590613296565b9190508190555061140883600c54611707565b8061141290613296565b90506113de565b505050565b606043600f5411611486576000611433611fec565b90506000815111611453576040518060200160405280600081525061147e565b8061145d8461200c565b60405160200161146e9291906137fd565b6040516020818303038152906040525b915050611514565b601080546114939061330e565b80601f01602080910402602001604051908101604052809291908181526020018280546114bf9061330e565b801561150c5780601f106114e15761010080835404028352916020019161150c565b820191906000526020600020905b8154815290600101906020018083116114ef57829003601f168201915b505050505090505b919050565b611521611913565b6000828290509050600b5481600c5461153a9190613217565b1115611572576040517f25d79e5f00000000000000000000000000000000000000000000000000000000815260040160405180910390fd5b60005b818110156115d757600c6000815461158c90613296565b919050819055506115c68484838181106115a9576115a861361a565b5b90506020020160208101906115be9190612eaa565b600c54611707565b806115d090613296565b9050611575565b50505050565b6000600560008473ffffffffffffffffffffffffffffffffffffffff1673ffffffffffffffffffffffffffffffffffffffff16815260200190815260200160002060008373ffffffffffffffffffffffffffffffffffffffff1673ffffffffffffffffffffffffffffffffffffffff16815260200190815260200160002060009054906101000a900460ff16905092915050565b611679611913565b600073ffffffffffffffffffffffffffffffffffffffff168173ffffffffffffffffffffffffffffffffffffffff1614156116e9576040517f08c379a00000000000000000000000000000000000000000000000000000000081526004016116e090613893565b60405180910390fd5b6116f281611d5d565b50565b6116fd611913565b80600d8190555050565b6117218282604051806020016040528060008152506120e4565b5050565b60007f80ac58cd000000000000000000000000000000000000000000000000000000007bffffffffffffffffffffffffffffffffffffffffffffffffffffffff1916827bffffffffffffffffffffffffffffffffffffffffffffffffffffffff191614806117f057507f5b5e139f000000000000000000000000000000000000000000000000000000007bffffffffffffffffffffffffffffffffffffffffffffffffffffffff1916827bffffffffffffffffffffffffffffffffffffffffffffffffffffffff1916145b8061180057506117ff8261213f565b5b9050919050565b611810816121a9565b61184f576040517f08c379a000000000000000000000000000000000000000000000000000000000815260040161184690613695565b60405180910390fd5b50565b600033905090565b816004600083815260200190815260200160002060006101000a81548173ffffffffffffffffffffffffffffffffffffffff021916908373ffffffffffffffffffffffffffffffffffffffff160217905550808273ffffffffffffffffffffffffffffffffffffffff166118cd83610f68565b73ffffffffffffffffffffffffffffffffffffffff167f8c5be1e5ebec7d5bd14f71427d1e84f3dd0314c0f7b2291e5b200ac8c7c3b92560405160405180910390a45050565b61191b611852565b73ffffffffffffffffffffffffffffffffffffffff16611939611169565b73ffffffffffffffffffffffffffffffffffffffff161461198f576040517f08c379a0000000000000000000000000000000000000000000000000000000008152600401611986906138ff565b60405180910390fd5b565b60008061199d83610f68565b90508073ffffffffffffffffffffffffffffffffffffffff168473ffffffffffffffffffffffffffffffffffffffff1614806119df57506119de81856115dd565b5b80611a1d57508373ffffffffffffffffffffffffffffffffffffffff16611a0584610b9e565b73ffffffffffffffffffffffffffffffffffffffff16145b91505092915050565b8273ffffffffffffffffffffffffffffffffffffffff16611a4682610f68565b73ffffffffffffffffffffffffffffffffffffffff1614611a9c576040517f08c379a0000000000000000000000000000000000000000000000000000000008152600401611a9390613991565b60405180910390fd5b600073ffffffffffffffffffffffffffffffffffffffff168273ffffffffffffffffffffffffffffffffffffffff161415611b0c576040517f08c379a0000000000000000000000000000000000000000000000000000000008152600401611b0390613a23565b60405180910390fd5b611b1983838360016121ea565b8273ffffffffffffffffffffffffffffffffffffffff16611b3982610f68565b73ffffffffffffffffffffffffffffffffffffffff1614611b8f576040517f08c379a0000000000000000000000000000000000000000000000000000000008152600401611b8690613991565b60405180910390fd5b6004600082815260200190815260200160002060006101000a81549073ffffffffffffffffffffffffffffffffffffffff02191690556001600360008573ffffffffffffffffffffffffffffffffffffffff1673ffffffffffffffffffffffffffffffffffffffff168152602001908152602001600020600082825403925050819055506001600360008473ffffffffffffffffffffffffffffffffffffffff1673ffffffffffffffffffffffffffffffffffffffff16815260200190815260200160002060008282540192505081905550816002600083815260200190815260200160002060006101000a81548173ffffffffffffffffffffffffffffffffffffffff021916908373ffffffffffffffffffffffffffffffffffffffff160217905550808273ffffffffffffffffffffffffffffffffffffffff168473ffffffffffffffffffffffffffffffffffffffff167fddf252ad1be2c89b69c2b068fc378daa952ba7f163c4a11628f55a4df523b3ef60405160405180910390a4611d1b838383600161234a565b505050565b60006002600083815260200190815260200160002060009054906101000a900473ffffffffffffffffffffffffffffffffffffffff169050919050565b6000600a60009054906101000a900473ffffffffffffffffffffffffffffffffffffffff16905081600a60006101000a81548173ffffffffffffffffffffffffffffffffffffffff021916908373ffffffffffffffffffffffffffffffffffffffff1602179055508173ffffffffffffffffffffffffffffffffffffffff168173ffffffffffffffffffffffffffffffffffffffff167f8be0079c531659141344cd1fd0a4f28419497f9722a3daafe3b4186f6b6457e060405160405180910390a35050565b8173ffffffffffffffffffffffffffffffffffffffff168373ffffffffffffffffffffffffffffffffffffffff161415611e92576040517f08c379a0000000000000000000000000000000000000000000000000000000008152600401611e8990613a8f565b60405180910390fd5b80600560008573ffffffffffffffffffffffffffffffffffffffff1673ffffffffffffffffffffffffffffffffffffffff16815260200190815260200160002060008473ffffffffffffffffffffffffffffffffffffffff1673ffffffffffffffffffffffffffffffffffffffff16815260200190815260200160002060006101000a81548160ff0219169083151502179055508173ffffffffffffffffffffffffffffffffffffffff168373ffffffffffffffffffffffffffffffffffffffff167f17307eab39ab6107e8899845ad3d59bd9653f200f220920489ca2b5937696c3183604051611f839190612c2c565b60405180910390a3505050565b611f9b848484611a26565b611fa784848484612350565b611fe6576040517f08c379a0000000000000000000000000000000000000000000000000000000008152600401611fdd90613b21565b60405180910390fd5b50505050565b60606040518060600160405280602c8152602001613ded602c9139905090565b60606000600161201b846124d8565b01905060008167ffffffffffffffff81111561203a57612039612f4d565b5b6040519080825280601f01601f19166020018201604052801561206c5781602001600182028036833780820191505090505b509050600082602001820190505b6001156120d9578080600190039150507f3031323334353637383961626364656600000000000000000000000000000000600a86061a8153600a85816120c3576120c2613b41565b5b04945060008514156120d4576120d9565b61207a565b819350505050919050565b6120ee838361262b565b6120fb6000848484612350565b61213a576040517f08c379a000000000000000000000000000000000000000000000000000000000815260040161213190613b21565b60405180910390fd5b505050565b60007f01ffc9a7000000000000000000000000000000000000000000000000000000007bffffffffffffffffffffffffffffffffffffffffffffffffffffffff1916827bffffffffffffffffffffffffffffffffffffffffffffffffffffffff1916149050919050565b60008073ffffffffffffffffffffffffffffffffffffffff166121cb83611d20565b73ffffffffffffffffffffffffffffffffffffffff1614159050919050565b6121f684848484612849565b600181111561223a576040517f08c379a000000000000000000000000000000000000000000000000000000000815260040161223190613be2565b60405180910390fd5b6000829050600073ffffffffffffffffffffffffffffffffffffffff168573ffffffffffffffffffffffffffffffffffffffff1614156122825761227d8161284f565b6122c1565b8373ffffffffffffffffffffffffffffffffffffffff168573ffffffffffffffffffffffffffffffffffffffff16146122c0576122bf8582612898565b5b5b600073ffffffffffffffffffffffffffffffffffffffff168473ffffffffffffffffffffffffffffffffffffffff161415612304576122ff81612a05565b612343565b8473ffffffffffffffffffffffffffffffffffffffff168473ffffffffffffffffffffffffffffffffffffffff1614612342576123418482612ad6565b5b5b5050505050565b50505050565b60006123718473ffffffffffffffffffffffffffffffffffffffff16612b55565b156124cb578373ffffffffffffffffffffffffffffffffffffffff1663150b7a0261239a611852565b8786866040518563ffffffff1660e01b81526004016123bc9493929190613c57565b6020604051808303816000875af19250505080156123f857506040513d601f19601f820116820180604052508101906123f59190613cb8565b60015b61247b573d8060008114612428576040519150601f19603f3d011682016040523d82523d6000602084013e61242d565b606091505b50600081511415612473576040517f08c379a000000000000000000000000000000000000000000000000000000000815260040161246a90613b21565b60405180910390fd5b805181602001fd5b63150b7a0260e01b7bffffffffffffffffffffffffffffffffffffffffffffffffffffffff1916817bffffffffffffffffffffffffffffffffffffffffffffffffffffffff1916149150506124d0565b600190505b949350505050565b600080600090507a184f03e93ff9f4daa797ed6e38ed64bf6a1f0100000000000000008310612536577a184f03e93ff9f4daa797ed6e38ed64bf6a1f010000000000000000838161252c5761252b613b41565b5b0492506040810190505b6d04ee2d6d415b85acef81000000008310612573576d04ee2d6d415b85acef8100000000838161256957612568613b41565b5b0492506020810190505b662386f26fc1000083106125a257662386f26fc10000838161259857612597613b41565b5b0492506010810190505b6305f5e10083106125cb576305f5e10083816125c1576125c0613b41565b5b0492506008810190505b61271083106125f05761271083816125e6576125e5613b41565b5b0492506004810190505b60648310612613576064838161260957612608613b41565b5b0492506002810190505b600a8310612622576001810190505b80915050919050565b600073ffffffffffffffffffffffffffffffffffffffff168273ffffffffffffffffffffffffffffffffffffffff16141561269b576040517f08c379a000000000000000000000000000000000000000000000000000000000815260040161269290613d31565b60405180910390fd5b6126a4816121a9565b156126e4576040517f08c379a00000000000000000000000000000000000000000000000000000000081526004016126db90613d9d565b60405180910390fd5b6126f26000838360016121ea565b6126fb816121a9565b1561273b576040517f08c379a000000000000000000000000000000000000000000000000000000000815260040161273290613d9d565b60405180910390fd5b6001600360008473ffffffffffffffffffffffffffffffffffffffff1673ffffffffffffffffffffffffffffffffffffffff16815260200190815260200160002060008282540192505081905550816002600083815260200190815260200160002060006101000a81548173ffffffffffffffffffffffffffffffffffffffff021916908373ffffffffffffffffffffffffffffffffffffffff160217905550808273ffffffffffffffffffffffffffffffffffffffff16600073ffffffffffffffffffffffffffffffffffffffff167fddf252ad1be2c89b69c2b068fc378daa952ba7f163c4a11628f55a4df523b3ef60405160405180910390a461284560008383600161234a565b5050565b50505050565b6008805490506009600083815260200190815260200160002081905550600881908060018154018082558091505060019003906000526020600020016000909190919091505550565b600060016128a58461109d565b6128af919061378d565b9050600060076000848152602001908152602001600020549050818114612994576000600660008673ffffffffffffffffffffffffffffffffffffffff1673ffffffffffffffffffffffffffffffffffffffff168152602001908152602001600020600084815260200190815260200160002054905080600660008773ffffffffffffffffffffffffffffffffffffffff1673ffffffffffffffffffffffffffffffffffffffff168152602001908152602001600020600084815260200190815260200160002081905550816007600083815260200190815260200160002081905550505b6007600084815260200190815260200160002060009055600660008573ffffffffffffffffffffffffffffffffffffffff1673ffffffffffffffffffffffffffffffffffffffff16815260200190815260200160002060008381526020019081526020016000206000905550505050565b60006001600880549050612a19919061378d565b9050600060096000848152602001908152602001600020549050600060088381548110612a4957612a4861361a565b5b906000526020600020015490508060088381548110612a6b57612a6a61361a565b5b906000526020600020018190555081600960008381526020019081526020016000208190555060096000858152602001908152602001600020600090556008805480612aba57612ab9613dbd565b5b6001900381819060005260206000200160009055905550505050565b6000612ae18361109d565b905081600660008573ffffffffffffffffffffffffffffffffffffffff1673ffffffffffffffffffffffffffffffffffffffff168152602001908152602001600020600083815260200190815260200160002081905550806007600084815260200190815260200160002081905550505050565b6000808273ffffffffffffffffffffffffffffffffffffffff163b119050919050565b6000604051905090565b600080fd5b600080fd5b60007fffffffff0000000000000000000000000000000000000000000000000000000082169050919050565b612bc181612b8c565b8114612bcc57600080fd5b50565b600081359050612bde81612bb8565b92915050565b600060208284031215612bfa57612bf9612b82565b5b6000612c0884828501612bcf565b91505092915050565b60008115159050919050565b612c2681612c11565b82525050565b6000602082019050612c416000830184612c1d565b92915050565b600081519050919050565b600082825260208201905092915050565b60005b83811015612c81578082015181840152602081019050612c66565b83811115612c90576000848401525b50505050565b6000601f19601f8301169050919050565b6000612cb282612c47565b612cbc8185612c52565b9350612ccc818560208601612c63565b612cd581612c96565b840191505092915050565b60006020820190508181036000830152612cfa8184612ca7565b905092915050565b6000819050919050565b612d1581612d02565b8114612d2057600080fd5b50565b600081359050612d3281612d0c565b92915050565b600060208284031215612d4e57612d4d612b82565b5b6000612d5c84828501612d23565b91505092915050565b600073ffffffffffffffffffffffffffffffffffffffff82169050919050565b6000612d9082612d65565b9050919050565b612da081612d85565b82525050565b6000602082019050612dbb6000830184612d97565b92915050565b612dca81612d85565b8114612dd557600080fd5b50565b600081359050612de781612dc1565b92915050565b60008060408385031215612e0457612e03612b82565b5b6000612e1285828601612dd8565b9250506020612e2385828601612d23565b9150509250929050565b612e3681612d02565b82525050565b6000602082019050612e516000830184612e2d565b92915050565b600080600060608486031215612e7057612e6f612b82565b5b6000612e7e86828701612dd8565b9350506020612e8f86828701612dd8565b9250506040612ea086828701612d23565b9150509250925092565b600060208284031215612ec057612ebf612b82565b5b6000612ece84828501612dd8565b91505092915050565b612ee081612c11565b8114612eeb57600080fd5b50565b600081359050612efd81612ed7565b92915050565b60008060408385031215612f1a57612f19612b82565b5b6000612f2885828601612dd8565b9250506020612f3985828601612eee565b9150509250929050565b600080fd5b600080fd5b7f4e487b7100000000000000000000000000000000000000000000000000000000600052604160045260246000fd5b612f8582612c96565b810181811067ffffffffffffffff82111715612fa457612fa3612f4d565b5b80604052505050565b6000612fb7612b78565b9050612fc38282612f7c565b919050565b600067ffffffffffffffff821115612fe357612fe2612f4d565b5b612fec82612c96565b9050602081019050919050565b82818337600083830152505050565b600061301b61301684612fc8565b612fad565b90508281526020810184848401111561303757613036612f48565b5b613042848285612ff9565b509392505050565b600082601f83011261305f5761305e612f43565b5b813561306f848260208601613008565b91505092915050565b6000806000806080858703121561309257613091612b82565b5b60006130a087828801612dd8565b94505060206130b187828801612dd8565b93505060406130c287828801612d23565b925050606085013567ffffffffffffffff8111156130e3576130e2612b87565b5b6130ef8782880161304a565b91505092959194509250565b600080fd5b600080fd5b60008083601f84011261311b5761311a612f43565b5b8235905067ffffffffffffffff811115613138576131376130fb565b5b60208301915083602082028301111561315457613153613100565b5b9250929050565b6000806020838503121561317257613171612b82565b5b600083013567ffffffffffffffff8111156131905761318f612b87565b5b61319c85828601613105565b92509250509250929050565b600080604083850312156131bf576131be612b82565b5b60006131cd85828601612dd8565b92505060206131de85828601612dd8565b9150509250929050565b7f4e487b7100000000000000000000000000000000000000000000000000000000600052601160045260246000fd5b600061322282612d02565b915061322d83612d02565b9250827fffffffffffffffffffffffffffffffffffffffffffffffffffffffffffffffff03821115613262576132616131e8565b5b828201905092915050565b60006040820190506132826000830185612e2d565b61328f6020830184612e2d565b9392505050565b60006132a182612d02565b91507fffffffffffffffffffffffffffffffffffffffffffffffffffffffffffffffff8214156132d4576132d36131e8565b5b600182019050919050565b7f4e487b7100000000000000000000000000000000000000000000000000000000600052602260045260246000fd5b6000600282049050600182168061332657607f821691505b6020821081141561333a576133396132df565b5b50919050565b7f4552433732313a20617070726f76616c20746f2063757272656e74206f776e6560008201527f7200000000000000000000000000000000000000000000000000000000000000602082015250565b600061339c602183612c52565b91506133a782613340565b604082019050919050565b600060208201905081810360008301526133cb8161338f565b9050919050565b7f4552433732313a20617070726f76652063616c6c6572206973206e6f7420746f60008201527f6b656e206f776e6572206f7220617070726f76656420666f7220616c6c000000602082015250565b600061342e603d83612c52565b9150613439826133d2565b604082019050919050565b6000602082019050818103600083015261345d81613421565b9050919050565b7f4552433732313a2063616c6c6572206973206e6f7420746f6b656e206f776e6560008201527f72206f7220617070726f76656400000000000000000000000000000000000000602082015250565b60006134c0602d83612c52565b91506134cb82613464565b604082019050919050565b600060208201905081810360008301526134ef816134b3565b9050919050565b7f455243373231456e756d657261626c653a206f776e657220696e646578206f7560008201527f74206f6620626f756e6473000000000000000000000000000000000000000000602082015250565b6000613552602b83612c52565b915061355d826134f6565b604082019050919050565b6000602082019050818103600083015261358181613545565b9050919050565b7f455243373231456e756d657261626c653a20676c6f62616c20696e646578206f60008201527f7574206f6620626f756e64730000000000000000000000000000000000000000602082015250565b60006135e4602c83612c52565b91506135ef82613588565b604082019050919050565b60006020820190508181036000830152613613816135d7565b9050919050565b7f4e487b7100000000000000000000000000000000000000000000000000000000600052603260045260246000fd5b7f4552433732313a20696e76616c696420746f6b656e2049440000000000000000600082015250565b600061367f601883612c52565b915061368a82613649565b602082019050919050565b600060208201905081810360008301526136ae81613672565b9050919050565b600081905092915050565b50565b60006136d06000836136b5565b91506136db826136c0565b600082019050919050565b60006136f1826136c3565b9150819050919050565b7f4552433732313a2061646472657373207a65726f206973206e6f74206120766160008201527f6c6964206f776e65720000000000000000000000000000000000000000000000602082015250565b6000613757602983612c52565b9150613762826136fb565b604082019050919050565b600060208201905081810360008301526137868161374a565b9050919050565b600061379882612d02565b91506137a383612d02565b9250828210156137b6576137b56131e8565b5b828203905092915050565b600081905092915050565b60006137d782612c47565b6137e181856137c1565b93506137f1818560208601612c63565b80840191505092915050565b600061380982856137cc565b915061381582846137cc565b91508190509392505050565b7f4f776e61626c653a206e6577206f776e657220697320746865207a65726f206160008201527f6464726573730000000000000000000000000000000000000000000000000000602082015250565b600061387d602683612c52565b915061388882613821565b604082019050919050565b600060208201905081810360008301526138ac81613870565b9050919050565b7f4f776e61626c653a2063616c6c6572206973206e6f7420746865206f776e6572600082015250565b60006138e9602083612c52565b91506138f4826138b3565b602082019050919050565b60006020820190508181036000830152613918816138dc565b9050919050565b7f4552433732313a207472616e736665722066726f6d20696e636f72726563742060008201527f6f776e6572000000000000000000000000000000000000000000000000000000602082015250565b600061397b602583612c52565b91506139868261391f565b604082019050919050565b600060208201905081810360008301526139aa8161396e565b9050919050565b7f4552433732313a207472616e7366657220746f20746865207a65726f2061646460008201527f7265737300000000000000000000000000000000000000000000000000000000602082015250565b6000613a0d602483612c52565b9150613a18826139b1565b604082019050919050565b60006020820190508181036000830152613a3c81613a00565b9050919050565b7f4552433732313a20617070726f766520746f2063616c6c657200000000000000600082015250565b6000613a79601983612c52565b9150613a8482613a43565b602082019050919050565b60006020820190508181036000830152613aa881613a6c565b9050919050565b7f4552433732313a207472616e7366657220746f206e6f6e20455243373231526560008201527f63656976657220696d706c656d656e7465720000000000000000000000000000602082015250565b6000613b0b603283612c52565b9150613b1682613aaf565b604082019050919050565b60006020820190508181036000830152613b3a81613afe565b9050919050565b7f4e487b7100000000000000000000000000000000000000000000000000000000600052601260045260246000fd5b7f455243373231456e756d657261626c653a20636f6e736563757469766520747260008201527f616e7366657273206e6f7420737570706f727465640000000000000000000000602082015250565b6000613bcc603583612c52565b9150613bd782613b70565b604082019050919050565b60006020820190508181036000830152613bfb81613bbf565b9050919050565b600081519050919050565b600082825260208201905092915050565b6000613c2982613c02565b613c338185613c0d565b9350613c43818560208601612c63565b613c4c81612c96565b840191505092915050565b6000608082019050613c6c6000830187612d97565b613c796020830186612d97565b613c866040830185612e2d565b8181036060830152613c988184613c1e565b905095945050505050565b600081519050613cb281612bb8565b92915050565b600060208284031215613cce57613ccd612b82565b5b6000613cdc84828501613ca3565b91505092915050565b7f4552433732313a206d696e7420746f20746865207a65726f2061646472657373600082015250565b6000613d1b602083612c52565b9150613d2682613ce5565b602082019050919050565b60006020820190508181036000830152613d4a81613d0e565b9050919050565b7f4552433732313a20746f6b656e20616c7265616479206d696e74656400000000600082015250565b6000613d87601c83612c52565b9150613d9282613d51565b602082019050919050565b60006020820190508181036000830152613db681613d7a565b9050919050565b7f4e487b7100000000000000000000000000000000000000000000000000000000600052603160045260246000fdfe68747470733a2f2f6170692e6d6574616178656c2e6f6e6c696e652f6170692f76312f646174612f68616e2fa26469706673582212204dd40d6b698d3f33b46bf7318494a507c3ffc045496e5457ace00aa3ceaf27cf64736f6c634300080b0033",
  "linkReferences": {},
  "deployedLinkReferences": {}
}