{
  "_format": "hh-sol-artifact-1",
  "contractName": "marketPlaceBoilerPlate",
  "sourceName": "contracts/marketplaceBoilerplate.sol",
  "abi": [
    {
      "inputs": [],
      "stateMutability": "nonpayable",
      "type": "constructor"
    },
    {
      "anonymous": false,
      "inputs": [
        {
          "indexed": true,
          "internalType": "uint256",
          "name": "itemId",
          "type": "uint256"
        },
        {
          "indexed": true,
          "internalType": "address",
          "name": "nftContract",
          "type": "address"
        },
        {
          "indexed": true,
          "internalType": "uint256",
          "name": "tokenId",
          "type": "uint256"
        },
        {
          "indexed": false,
          "internalType": "address",
          "name": "seller",
          "type": "address"
        },
        {
          "indexed": false,
          "internalType": "address",
          "name": "owner",
          "type": "address"
        },
        {
          "indexed": false,
          "internalType": "uint256",
          "name": "price",
          "type": "uint256"
        },
        {
          "indexed": false,
          "internalType": "bool",
          "name": "sold",
          "type": "bool"
        }
      ],
      "name": "MarketItemCreated",
      "type": "event"
    },
    {
      "anonymous": false,
      "inputs": [
        {
          "indexed": true,
          "internalType": "uint256",
          "name": "itemId",
          "type": "uint256"
        },
        {
          "indexed": false,
          "internalType": "address",
          "name": "owner",
          "type": "address"
        }
      ],
      "name": "MarketItemSold",
      "type": "event"
    },
    {
      "inputs": [
        {
          "internalType": "address",
          "name": "nftContract",
          "type": "address"
        },
        {
          "internalType": "uint256",
          "name": "tokenId",
          "type": "uint256"
        },
        {
          "internalType": "uint256",
          "name": "price",
          "type": "uint256"
        }
      ],
      "name": "createMarketItem",
      "outputs": [],
      "stateMutability": "payable",
      "type": "function"
    },
    {
      "inputs": [
        {
          "internalType": "address",
          "name": "nftContract",
          "type": "address"
        },
        {
          "internalType": "uint256",
          "name": "itemId",
          "type": "uint256"
        }
      ],
      "name": "createMarketSale",
      "outputs": [],
      "stateMutability": "payable",
      "type": "function"
    },
    {
      "inputs": [],
      "name": "fetchMarketItems",
      "outputs": [
        {
          "components": [
            {
              "internalType": "uint256",
              "name": "itemId",
              "type": "uint256"
            },
            {
              "internalType": "address",
              "name": "nftContract",
              "type": "address"
            },
            {
              "internalType": "uint256",
              "name": "tokenId",
              "type": "uint256"
            },
            {
              "internalType": "address payable",
              "name": "seller",
              "type": "address"
            },
            {
              "internalType": "address payable",
              "name": "owner",
              "type": "address"
            },
            {
              "internalType": "uint256",
              "name": "price",
              "type": "uint256"
            },
            {
              "internalType": "bool",
              "name": "sold",
              "type": "bool"
            }
          ],
          "internalType": "struct marketPlaceBoilerPlate.MarketItem[]",
          "name": "",
          "type": "tuple[]"
        }
      ],
      "stateMutability": "view",
      "type": "function"
    },
    {
      "inputs": [],
      "name": "owner",
      "outputs": [
        {
          "internalType": "address",
          "name": "",
          "type": "address"
        }
      ],
      "stateMutability": "view",
      "type": "function"
    }
  ],
  "bytecode": "0x608060405234801561001057600080fd5b50600160008190555033600360006101000a81548173ffffffffffffffffffffffffffffffffffffffff021916908373ffffffffffffffffffffffffffffffffffffffff160217905550611172806100696000396000f3fe60806040526004361061003f5760003560e01c80630f08efe01461004457806358eb2df51461006f5780638da5cb5b1461008b578063c23b139e146100b6575b600080fd5b34801561005057600080fd5b506100596100d2565b6040516100669190610c1f565b60405180910390f35b61008960048036038101906100849190610c9e565b61039c565b005b34801561009757600080fd5b506100a0610676565b6040516100ad9190610d00565b60405180910390f35b6100d060048036038101906100cb9190610d1b565b61069c565b005b606060006100e0600161094d565b905060006100ee600261094d565b6100f8600161094d565b6101029190610d8a565b90506000808267ffffffffffffffff81111561012157610120610dbe565b5b60405190808252806020026020018201604052801561015a57816020015b6101476109cb565b81526020019060019003908161013f5790505b50905060005b8481101561039157600073ffffffffffffffffffffffffffffffffffffffff16600460006001846101919190610ded565b815260200190815260200160002060040160009054906101000a900473ffffffffffffffffffffffffffffffffffffffff1673ffffffffffffffffffffffffffffffffffffffff16141561037e5760006001826101ee9190610ded565b90506000600460008381526020019081526020016000209050806040518060e0016040529081600082015481526020016001820160009054906101000a900473ffffffffffffffffffffffffffffffffffffffff1673ffffffffffffffffffffffffffffffffffffffff1673ffffffffffffffffffffffffffffffffffffffff168152602001600282015481526020016003820160009054906101000a900473ffffffffffffffffffffffffffffffffffffffff1673ffffffffffffffffffffffffffffffffffffffff1673ffffffffffffffffffffffffffffffffffffffff1681526020016004820160009054906101000a900473ffffffffffffffffffffffffffffffffffffffff1673ffffffffffffffffffffffffffffffffffffffff1673ffffffffffffffffffffffffffffffffffffffff168152602001600582015481526020016006820160009054906101000a900460ff16151515158152505084868151811061036157610360610e43565b5b60200260200101819052506001856103799190610ded565b945050505b808061038990610e72565b915050610160565b508094505050505090565b6103a461095b565b600081116103e7576040517f08c379a00000000000000000000000000000000000000000000000000000000081526004016103de90610f18565b60405180910390fd5b6103f160016109ab565b60006103fd600161094d565b90506040518060e001604052808281526020018573ffffffffffffffffffffffffffffffffffffffff1681526020018481526020013373ffffffffffffffffffffffffffffffffffffffff168152602001600073ffffffffffffffffffffffffffffffffffffffff16815260200183815260200160001515815250600460008381526020019081526020016000206000820151816000015560208201518160010160006101000a81548173ffffffffffffffffffffffffffffffffffffffff021916908373ffffffffffffffffffffffffffffffffffffffff1602179055506040820151816002015560608201518160030160006101000a81548173ffffffffffffffffffffffffffffffffffffffff021916908373ffffffffffffffffffffffffffffffffffffffff16021790555060808201518160040160006101000a81548173ffffffffffffffffffffffffffffffffffffffff021916908373ffffffffffffffffffffffffffffffffffffffff16021790555060a0820151816005015560c08201518160060160006101000a81548160ff0219169083151502179055509050508373ffffffffffffffffffffffffffffffffffffffff166323b872dd3330866040518463ffffffff1660e01b81526004016105de93929190610f47565b600060405180830381600087803b1580156105f857600080fd5b505af115801561060c573d6000803e3d6000fd5b50505050828473ffffffffffffffffffffffffffffffffffffffff16827f045dfa01dcba2b36aba1d3dc4a874f4b0c5d2fbeb8d2c4b34a7d88c8d8f929d13360008760006040516106609493929190610f8d565b60405180910390a4506106716109c1565b505050565b600360009054906101000a900473ffffffffffffffffffffffffffffffffffffffff1681565b6106a461095b565b60006004600083815260200190815260200160002060050154905060006004600084815260200190815260200160002060020154905060006004600085815260200190815260200160002060060160009054906101000a900460ff169050823414610744576040517f08c379a000000000000000000000000000000000000000000000000000000000815260040161073b90611044565b60405180910390fd5b60011515811515141561078c576040517f08c379a0000000000000000000000000000000000000000000000000000000008152600401610783906110b0565b60405180910390fd5b837f2073b2706c235effb1e3840575370a51749afd8181b4018f93bff955d50792cb336040516107bc9190610d00565b60405180910390a26004600085815260200190815260200160002060030160009054906101000a900473ffffffffffffffffffffffffffffffffffffffff1673ffffffffffffffffffffffffffffffffffffffff166108fc349081150290604051600060405180830381858888f19350505050158015610840573d6000803e3d6000fd5b508473ffffffffffffffffffffffffffffffffffffffff166323b872dd3033856040518463ffffffff1660e01b815260040161087e93929190610f47565b600060405180830381600087803b15801561089857600080fd5b505af11580156108ac573d6000803e3d6000fd5b50505050336004600086815260200190815260200160002060040160006101000a81548173ffffffffffffffffffffffffffffffffffffffff021916908373ffffffffffffffffffffffffffffffffffffffff16021790555061090f60026109ab565b60016004600086815260200190815260200160002060060160006101000a81548160ff0219169083151502179055505050506109496109c1565b5050565b600081600001549050919050565b600260005414156109a1576040517f08c379a00000000000000000000000000000000000000000000000000000000081526004016109989061111c565b60405180910390fd5b6002600081905550565b6001816000016000828254019250508190555050565b6001600081905550565b6040518060e0016040528060008152602001600073ffffffffffffffffffffffffffffffffffffffff16815260200160008152602001600073ffffffffffffffffffffffffffffffffffffffff168152602001600073ffffffffffffffffffffffffffffffffffffffff168152602001600081526020016000151581525090565b600081519050919050565b600082825260208201905092915050565b6000819050602082019050919050565b6000819050919050565b610a8b81610a78565b82525050565b600073ffffffffffffffffffffffffffffffffffffffff82169050919050565b6000610abc82610a91565b9050919050565b610acc81610ab1565b82525050565b6000610add82610a91565b9050919050565b610aed81610ad2565b82525050565b60008115159050919050565b610b0881610af3565b82525050565b60e082016000820151610b246000850182610a82565b506020820151610b376020850182610ac3565b506040820151610b4a6040850182610a82565b506060820151610b5d6060850182610ae4565b506080820151610b706080850182610ae4565b5060a0820151610b8360a0850182610a82565b5060c0820151610b9660c0850182610aff565b50505050565b6000610ba88383610b0e565b60e08301905092915050565b6000602082019050919050565b6000610bcc82610a4c565b610bd68185610a57565b9350610be183610a68565b8060005b83811015610c12578151610bf98882610b9c565b9750610c0483610bb4565b925050600181019050610be5565b5085935050505092915050565b60006020820190508181036000830152610c398184610bc1565b905092915050565b600080fd5b610c4f81610ab1565b8114610c5a57600080fd5b50565b600081359050610c6c81610c46565b92915050565b610c7b81610a78565b8114610c8657600080fd5b50565b600081359050610c9881610c72565b92915050565b600080600060608486031215610cb757610cb6610c41565b5b6000610cc586828701610c5d565b9350506020610cd686828701610c89565b9250506040610ce786828701610c89565b9150509250925092565b610cfa81610ab1565b82525050565b6000602082019050610d156000830184610cf1565b92915050565b60008060408385031215610d3257610d31610c41565b5b6000610d4085828601610c5d565b9250506020610d5185828601610c89565b9150509250929050565b7f4e487b7100000000000000000000000000000000000000000000000000000000600052601160045260246000fd5b6000610d9582610a78565b9150610da083610a78565b925082821015610db357610db2610d5b565b5b828203905092915050565b7f4e487b7100000000000000000000000000000000000000000000000000000000600052604160045260246000fd5b6000610df882610a78565b9150610e0383610a78565b9250827fffffffffffffffffffffffffffffffffffffffffffffffffffffffffffffffff03821115610e3857610e37610d5b565b5b828201905092915050565b7f4e487b7100000000000000000000000000000000000000000000000000000000600052603260045260246000fd5b6000610e7d82610a78565b91507fffffffffffffffffffffffffffffffffffffffffffffffffffffffffffffffff821415610eb057610eaf610d5b565b5b600182019050919050565b600082825260208201905092915050565b7f5072696365206d7573742062652067726561746572207468616e203000000000600082015250565b6000610f02601c83610ebb565b9150610f0d82610ecc565b602082019050919050565b60006020820190508181036000830152610f3181610ef5565b9050919050565b610f4181610a78565b82525050565b6000606082019050610f5c6000830186610cf1565b610f696020830185610cf1565b610f766040830184610f38565b949350505050565b610f8781610af3565b82525050565b6000608082019050610fa26000830187610cf1565b610faf6020830186610cf1565b610fbc6040830185610f38565b610fc96060830184610f7e565b95945050505050565b7f506c65617365207375626d6974207468652061736b696e67207072696365206960008201527f6e206f7264657220746f20636f6d706c65746520746865207075726368617365602082015250565b600061102e604083610ebb565b915061103982610fd2565b604082019050919050565b6000602082019050818103600083015261105d81611021565b9050919050565b7f546869732053616c652068617320616c726564792066696e6e69736865640000600082015250565b600061109a601e83610ebb565b91506110a582611064565b602082019050919050565b600060208201905081810360008301526110c98161108d565b9050919050565b7f5265656e7472616e637947756172643a207265656e7472616e742063616c6c00600082015250565b6000611106601f83610ebb565b9150611111826110d0565b602082019050919050565b60006020820190508181036000830152611135816110f9565b905091905056fea2646970667358221220216dc658dda35f4e4c381ca690fef8125f6a9ce0ccf2b5c10b19455cf99d3c9964736f6c634300080b0033",
  "linkReferences": {},
  "deployedLinkReferences": {}
}